:020000040000FA
:0300000002044BAC
:03000B0002024CA2
:0300230002007662
:03002B0002025777
:030033000202BB0B
:0300430002033481
:03004B0002042D7F
:0300530002043A6A
:1000730002026EC0E0C0D075A700758920204D0331
:1000830002009B90000F3099FDC299A3E06004F534
:100093009980F3C24D02024175F010900000740084
:1000A300F0D5F0028003A380F5900000E599F0C23B
:1000B30098758C1D758A00C28D209806308DFA02C2
:1000C300023E900001E599F0C298758C1D758A0077
:1000D300C28D209806308DFA02023E900002E59907
:1000E300F0C298758C1D758A00C28D209806308DDC
:1000F300FA02023E900003E599F0C298758C1D75D3
:100103008A00C28D209806308DFA02023E900004C8
:10011300E599F0C298758C1D758A00C28D209806EA
:10012300308DFA02023E900005E599F0C298758C75
:100133001D758A00C28D209806308DFA02023E900A
:100143000006E599F0C298758C1D758A00C28D2052
:100153009806308DFA02023E900007E599F0C298A6
:10016300758C1D758A00C28D209806308DFA0202A7
:100173003E900008E599F0C298758C1D758A00C2FF
:100183008D209806308DFA02023E900009E599F021
:10019300C298758C1D758A00C28D209806308DFA21
:1001A30002023E90000AE599F0C298758C1D758A8B
:1001B30000C28D209806308DFA02023E90000BE5B6
:1001C30099F0C298758C1D758A00C28D20980630EF
:1001D3008DFA02023E90000CE599F0C298758C1DD1
:1001E300758A00C28D209806308DFA02023E900077
:1001F3000DE599F0C298758C1D758A00C28D209803
:1002030006308DFA02023E90000EE599F0C2987511
:100213008C1D758A00C28D209806308DFA02023E2D
:1002230090000FE599F0C298758C1D758A00C28DF8
:10023300209806308DFA02023E800100D24C759858
:1002430070758922D0D0D0E032C0E0C0D0C28DD04A
:10025300D0D0E032C0E0C0D075C804203E08D54AF3
:1002630005754A0ED248D0D0D0E032C0E0C0D07578
:100273009500759400759104301638200511D53119
:100283000E753190E51FAC1FC205D22D75FE0820F7
:100293000119200B1E300A1BD50805750820B23240
:1002A300203208C2A4D2A5C2A68008C2A4C2A5D285
:1002B300A68000D0D0D0E032C0E0C0D0C2FF75A786
:1002C30020759A4475A700300F62C2A0758CFF7524
:1002D3008AFEC28D308DFD8511A375A720E5F744F5
:1002E3000FB40FF975A7000000000000000000859F
:1002F30012A375A720E5F7440FB40FF975A7000003
:10030300000000000000008513A375A720E5F74453
:100313000FB40FF975A7000000000000000000E50E
:10032300A1447FB47FF9D2A0C20FD210D0D0D0E0C5
:1003330032C0E0C0D075FDFFE5EDB4FF0620160620
:100343000204280203D120830D204508204905D249
:100353002E75FDF7812830965B2049F830950530DE
:10036300942A81283095FD3094FA758C00758A00A3
:10037300C28D308DFD3095EC3094E9D20DC20EC2A2
:100383004675FE0075319075470180423094FD300B
:1003930095FA758C00758A00C28D308DFD3094EC12
:1003A3003095E9D20EC20DC24675FE0075319075C7
:1003B30047018071758C00758A00C28D308DFD20D8
:1003C3009663204407D22D7547708002D246758C00
:1003D30000758A00C28D308DFDD547F27547FF75D4
:1003E300480F75EDFF80003096028039308DF87527
:1003F3008C00758A00C28DE547D547EB7547FFD55D
:1004030048E5300520D2447B00C21375EDBF754724
:1004130005758921758C00758A00C28D308DFDD5D7
:1004230047F2758922D0D0D0E032C0E0C0D0D231BB
:10043300C2EBD0D0D0E032C0E0C0D0C2EDA9BEAA9A
:10044300BDD204D0D0D0E032C2AF7597DE7597AD80
:10045300D2AF75816075A90075E10375E20075E39C
:10046300C075D40F75F1F975A45175F2FF75A58F99
:1004730075EE7075A72075F3FB75A67B75A70075E0
:10048300A72075F4FF759C0C75A70075D14075A75F
:100493003075918075938075920175940175840010
:1004A300758508758900758A0875888875A700752C
:1004B3009870758E027588D2758922758DE475C81A
:1004C3000475CB0075CA0075910475A8E075E60A3A
:1004D30075A14775A20175F80375A720759A007574
:1004E300A70075E8A075DF1FC2EBC2ED75D1807858
:1004F3000179007A007B007C007D087E007FFF7518
:100503000820750A00750B00750C00750D00750E3B
:1005130000750F0275100075110075120075130038
:100523007515007516007517007518007519007597
:100533001A00751D017531907532007533007534DD
:10054300007535007536007537007538007539004C
:10055300753A00753B00753C00753D00753E0075AE
:100563003F007540007541007542007543007544B6
:1005730000754500754600754700754800754900CC
:10058300754A01754B01754C007550007551007526
:100593005200755300755400755500755600755714
:1005A30000755800755900755A00755B00755C003D
:1005B300755D00755E00755F00756AFF756B037589
:1005C3006C00756D00756E00756F00757000757148
:1005D300007572007573007574007575007576008B
:1005E300757700757800757900757A00C200C2933B
:1005F300C2927F06208D0280FBC28DDFF7C201C24B
:1006030002C203C204C20AC20BD297C2A1C205C26C
:1006130007C206C2B2C208C209C224C225C226C288
:1006230027C228C229C22AC22BC241C2A4C2A5D250
:10063300A6C212C22EC210C20FC213D2A0C217C2C8
:1006430016C218C214C215D21AC219C21DC20EC2D2
:100653000DC2A1C212C22CC22D75BE0075BD00C24F
:1006630031C235C23EC240C242C243C244C245C285
:1006730047C249C24BC24AC24D75A730AD85AE844D
:1006830075A700C211C21FC220D21C758921758CA7
:1006930000758A00C28D308DFD758922D2A1208319
:1006A30007D23EC23F021266E490F00093B4040DF9
:1006B300D249D2ACC2A3751D04D24BD22DE490F023
:1006C3000193C3B409004005754B018002F54B75D6
:1006D300FE08E490F91093F532E490F91193F533A1
:1006E300E490F91293F534E490F91393F535E4901B
:1006F300F91493F536E490F91593F537E490F91668
:1007030093F538E490F91793F539E490F91893F5D4
:100713003AE490F91993F53BE490F91A93F53CE424
:1007230090F91B93F53DE490F91C93F53EE490F9A1
:100733001D93F53FE490F91E93F540E490F91F9360
:10074300F541E490F92093F552E490F92193F553A0
:10075300E490F92293F554E490F92393F555E4904A
:10076300F92493F556E490F92593F557E490F92687
:1007730093F558E490F92793F559E490F92893F504
:100783005AE490F92993F55BE490F92A93F55CE434
:1007930090F92B93F55DE490F92C93F55EE490F9D1
:1007A3002D93F55FE490F92E93F550E490F92F9390
:1007B300F551E490F20093B40117D224C225C22666
:1007C300C227C228C229C22AC22B7C008C1F021254
:1007D30066B40217C224D225C226C227C228C22960
:1007E300C22AC22B7C018C1F021266B40317C224D7
:1007F300C225D226C227C228C229C22AC22B7C0202
:100803008C1F021266B40417C224C225C226D22743
:10081300C228C229C22AC22B7C038C1F021266B4CF
:100823000517C224C225C226C227D228C229C22A3A
:10083300C22B7C048C1F021266B40617C224C22585
:10084300C226C227C228D229C22AC22B7C058C1FEA
:10085300021266B40717C224C225C226C227C228C1
:10086300C229D22AC22B7C068C1F021266B408143A
:10087300C224C225C226C227C228C229C22AD22B19
:100883007C078C1F021266304C04C24C8003020F9B
:100893009A757F01900000E57FB4040DE54B1227A4
:1008A30002F5F0E0B5F028800811BFF5F0E0B5F0EF
:1008B3001EA3057FE57FB411DE0218FF8322445691
:1008C3003A2020353030000000000000000022757F
:1008D3007F01900000E57FB4040DE54B122702F57C
:1008E300F0E0B5F028800811FDF5F0E0B5F01EA3A7
:1008F300057FE57FB411DE02191B832244563A209B
:1009030020313030300000000000000022757F01EC
:10091300900000E57FB4040DE54B122702F5F0E0EB
:10092300B5F0288008313BF5F0E0B5F01EA3057F54
:10093300E57FB411DE021935832244563A20203272
:100943003030300000000000000022757F0190006D
:1009530000E57FB4040DE54B122702F5F0E0B5F096
:100963002880083179F5F0E0B5F01EA3057FE57F17
:10097300B411DE02194F832244563A202035303019
:10098300300000000000000022757F01900000E5A8
:100993007FB4040DE54B122702F5F0E0B5F0288093
:1009A3000831B7F5F0E0B5F01EA3057FE57FB4117C
:1009B300DE021969832244563A2020313030303028
:1009C30000000000000022757F01900000E57FB465
:1009D300040DE54B122702F5F0E0B5F0288008314D
:1009E300F5F5F0E0B5F01EA3057FE57FB411DE0257
:1009F3001983832244563A202032303030300000AD
:100A03000000000022757F01900000E57FB4040D13
:100A1300E54B122702F5F0E0B5F02880085133F5D5
:100A2300F0E0B5F01EA3057FE57FB411DE02199D4A
:100A3300832244563A202034303030300000000006
:100A4300000022757F01900000E57FB4040DE54BA3
:100A5300122702F5F0E0B5F02880085171F5F0E0B7
:100A6300B5F01EA3057FE57FB411DE020DBD832221
:100A730044563A2020564F4C543F000000000000DB
:100A830022757F01900000E57FB4040DE54B12272A
:100A930002F5F0E0B5F02A800851B1F5F0E0B5F0C9
:100AA30020A3057FE57FB411DED22E02088A8322BC
:100AB30044563A2020415A00000000000000000084
:100AC30022757F01900000E57FB4040DE54B1227EA
:100AD30002F5F0E0B5F030800851F7F5F0E0B5F03D
:100AE30026A3057FE57FB411DE75B1FF7597A57564
:100AF300970180FE832244563A202052535400002B
:100B030000000000000022757F01900000E57FB423
:100B1300040DE54B122702F5F0E0B5F028800871CB
:100B230035F5F0E0B5F01EA3057FE57FB411DE02D5
:100B33000CC5832244563A20203F000000000000E9
:100B43000000000022757F01900000E57FB4040DD2
:100B5300E54B122702F5F0E0B5F02880087173F534
:100B6300F0E0B5F01EA3057FE57FB411DE020EF2BF
:100B7300832244563A20205357563F00000000007A
:100B8300000022757F01900000E57FB4040DE54B62
:100B9300122702F5F0E0B5F028800871B1F5F0E016
:100BA300B5F01EA3057FE57FB411DE020F2183227A
:100BB30044563A20205345523F00000000000000F5
:100BC30022757F01900000E57FB4040DE54B1227E9
:100BD30002F5F0E0B5F028800871EFF5F0E0B5F02C
:100BE3001EA3057FE57FB411DE020E4C832244561B
:100BF3003A202049444E3F000000000000002275C7
:100C03007F01900000E57FB4040DE54B122702F548
:100C1300F0E0B5F0228008912DF5F0E0B5F018A3CF
:100C2300057FE57FB40BDE020C3D832244563A2058
:100C33005F403D5345522202088A90000FE0B40002
:100C4300F6C2AF75B7A575B7F1758F0390E000E4F1
:100C5300F0758F0075B7A575B7F1758F0190000A10
:100C6300E090E000F0758F00E475B7A575B7F175F6
:100C73008F0190000BE090E001F0758F00E475B7F1
:100C8300A575B7F1758F0190000CE090E002F07547
:100C93008F00E475B7A575B7F1758F0190000DE06E
:100CA30090E003F0758F00E475B7A575B7F1758F04
:100CB3000190000EE090E004F0758F00E4D2AF02E3
:100CC3000F9A9000107444F0A37456F0A3743AF092
:100CD300A3E54B122702F0A3743DF0A37400F0A325
:100CE3007400F0A37400F0A37400F0A37400F0A3E5
:100CF3007400F0ECB400149000157435F0A3743054
:100D0300F0A37430F0A37400F0E18EB401109000EE
:100D1300157431F0A3744BF0A37400F0E18EB402A8
:100D2300109000157432F0A3744BF0A37400F0E13B
:100D33008EB403109000157435F0A3744BF0A374B4
:100D430000F0E18EB404149000157431F0A37430F4
:100D5300F0A3744BF0A37400F0E18EB4051490007B
:100D6300157432F0A37430F0A3744BF0A37400F045
:100D7300E18E9000157434F0A37430F0A3744BF03B
:100D8300A37400F0E18E75F001900010E5F0B40457
:100D930007E54B1227028008B1A9B40003F0E18EE6
:100DA300F0A305F080E6832244563A203D41555492
:100DB3004F5A45524F3D4F4B002275F001900010A2
:100DC300E5F0B40407E54B1227028063B40626302E
:100DD3003304742B8059C3E50A7012E50B700EE5DA
:100DE3000C700AE50D7006E50E70028004742D8008
:100DF3003E7420803AB40707E50A1227028030B414
:100E03000807E50B1227028026B40A07E50C122710
:100E130002801CB40B07E50D1227028012B40C07E5
:100E2300E50E1227028008D138B40003F0E18EF0FA
:100E3300A305F0808B832244563A203D2B30302E7D
:100E430030303056000000002275F001900010E5AC
:100E5300F0B4470AE490E00093900056803CB44815
:100E63000AE490E00193900057802FB4490AE4907C
:100E7300E002939000588022B44A0AE490E003937E
:100E83009000598015B44B0AE490E0049390005A03
:100E93008008D1A3B40003F0E18EF0A305F080AF86
:100EA300832256465420566563746F72666F72636D
:100EB300652D546563686E6F6C6F67696573204455
:100EC3005634304B20536F66747761726576657262
:100ED30073696F6E3A56312E3037205365726961EC
:100EE3006C6E756D6265723A7878787878002275E1
:100EF300F001900010E5F0F108B40003F0E18EF08A
:100F0300A305F080F08322536F6674776172657670
:100F1300657273696F6E3A56312E3037002275F061
:100F230001900010E5F0B40E0AE490E00093900005
:100F33001D803CB40F0AE490E0019390001E802FC3
:100F4300B4100AE490E0029390001F8022B4110AC7
:100F5300E490E003939000208015B4120AE490E03B
:100F630004939000218008F178B40003F0801CF012
:100F7300A305F080AF832253657269616C6E756D52
:100F83006265723A78787878780022D2A3D24DD20B
:100F930099204DFDC2A30030400302128B300103A0
:100FA3000219CE302E028019200B05200A13800867
:100FB300C2A4D2A5C2A68009203E06C2A4C2A5D25D
:100FC300A6203E0C30160630410320480302124B84
:100FD30075E68675BB0F75DF3F75B24075C6047540
:100FE300C56575C40275C371D2EC758CFF758A0033
:100FF300C28D308DFDA9BEAABD30310CD23AC23BA1
:10100300C23CC23DC23101BB75E68675BB0F75DFBD
:101013003F75B24075C60775C5D075C40575C3DC89
:10102300D2EC758CFF758A00C28D308DFDA9BEAAE6
:10103300BD30310CC23AD23BC23CC23DC231807892
:1010430075E68675BB0F75DF3F75B24075C60B75C8
:10105300C53B75C40975C347D2EC758CFF758A000F
:10106300C28D308DFDA9BEAABD30310CC23AC23B40
:10107300D23CC23DC231804075E68675BB0F75DF39
:101083003F75B24075C60E75C5A675C40775C3D046
:10109300D2EC758CFF758A00C28D308DFDA9BEAA76
:1010A300BD30310CC23AC23BC23CD23DC231800892
:1010B300C23AC23BC23CC23D75E68675BB0075DFD2
:1010C3003F75B24075C60075C50075C40E75C3D8AB
:1010D300D2EC30ECFD758CFF758A00C28D308DFD2E
:1010E300A9BEAABD303106D20AC231800075BB0049
:1010F30075C60075C50075C40F75C3A0D2EC30EC7E
:10110300FD758CFF758A00C28D308DFDA9BEAABD09
:10111300303108D20BD20AC231800100C3B90100B9
:101123005008C3BA010050028006D233C234806231
:1011330075BB0175C60075C50075C40E75C3D8D2DD
:10114300EC30ECFD758CFF758A00C28D308DFDA9E6
:10115300BEAABDC233D234303106D20AC2318000B6
:1011630075BB0179007A0075C60075C50075C40F9B
:1011730075C3A0D2EC30ECFD758CFF758A00C28D6F
:10118300308DFDA9BEAABD303108D20AD20BC231BF
:101193008000C248300502800302124B89158A166B
:1011A30089178A18751900751A00891B8A1C75F02E
:1011B30002E518B40007E517B4000680211518806E
:1011C3000715177518FF8000D5F0E675F002E51ACC
:1011D300B4FF070519751A0080D7051A80D3EA25CD
:1011E30016FAE93515F9EA251AFAE93519F9750AEE
:1011F30000750B00750C00750D00750E00EAB40048
:101203000BE9B400028041197AFF80011AE50EB49C
:101213000922750E00E50DB4091E750D00E50CB429
:10122300091A750C00E50BB40916750B00E50AB431
:1012330009128014050E80C5050D80C1050C80BD03
:10124300050B80B9050A80B5302C1820440C2045C5
:1012530009204906200E0E200D15200506302D030A
:101263000218D68023BC06047C00800D0C800ABCC7
:1012730000047C0680031C8000C205C22DC20EC27E
:101283000DD2127B0002210330120302210320132B
:1012930003022103303E030221E33040030213AB78
:1012A30030160F304403021D9F300003022A02024E
:1012B300144B30350302137CC2A4C2A5D2A6BB4C87
:1012C300207B15758921758C00758A00C28D308D40
:1012D300FD1BBB00F1D2357589227B00D2120208B7
:1012E3008ABB3F0A90E000E493F80B022103BB4062
:1012F3000AE490E00193F80B022103BB410AE49056
:10130300E00293F80B022103BB420AE490E003934B
:10131300F80B022103BB430AE490E00493F80B02A9
:1013230021030BEB712DF8022103832220202020BF
:1013330020202020202020202020202020202020AA
:10134300202020204652414354555245202020203E
:1013530020202020202020544543484E4F4C4F4707
:101363005920202020202020534E3A2020202020C6
:1013730020202076312E303722C2A4C2A5D2A6D295
:1013830016D2400213ABBB4C68D216C2AF7B557565
:101393008921758C00758A00C28D209602803930B0
:1013A3008DF81BBB00ECD240C2A1758C00758A007E
:1013B300C28D308DFDD2A1C2A4C2A5C2A63096FDB6
:1013C300758C00758A00C28D308DFD75EE70D297D5
:1013D300C2AF2049032096FDD2AFC297D24175898F
:1013E300227B0075E68AC240C20EC20DC2130208F8
:1013F3008A0BEB71FCF8022103832220202020209A
:1014030020202020202020202020202020202020D9
:101413005072657373202041444A55535420202051
:101423002020202020746F206163746976617465C5
:1014330020202020202020202020202020202020A9
:101443002020202020202022C22C201B2ABB14066F
:101453007B00D21B8021202E0F203A0F203B0F2030
:101463003C0F203D0F02153E0215D902155D0215F2
:101473007C02159B0215BA20223CBB14067B00D2CA
:10148300228033200A0C2045062049210215F80248
:101493001655200B0C204506204918021636021655
:1014A300932045062049090216170216740216B244
:1014B3000216DE0216FD202339BB14067B00D2235D
:1014C3008030BC00030217DDBC01030217FCBC0221
:1014D3000302181BBC030302183BBC040302185A83
:1014E300BC0503021879BC0603021898BC07030263
:1014F30018B7BB10047B008012202E06300509208C
:101503001C0302171C02175202173730010302197A
:10151300CE7BCC758C00758A00308DFDC28DDBF3DC
:10152300D212C21BC222C223D22C202E0302088A4B
:10153300D50F05750F02D20102088A0BEBB146F8ED
:10154300022103832220202020202020202020206D
:10155300202020202020202020220BEBB165F80240
:10156300210383224C502D46494C5445522031309F
:101573003030487A20202020220BEBB184F802215E
:101583000383224C502D46494C544552202033307E
:1015930030487A20202020220BEBB1A3F80221034C
:1015A30083224C502D46494C54455220202035303F
:1015B300487A20202020220BEBB1C2F802210383BA
:1015C300224C502D46494C544552202020204F4652
:1015D3004620202020220BEBB1E1F80221038322D5
:1015E30020202A2A4155544F5A45524F2A2A202057
:1015F30020202020220BEBD100F80221038322209C
:1016030020202020202020202020202020202020D7
:10161300202020220BEBD11FF8022103832220205C
:10162300204F56455252414E47452120202020202D
:101633002020220BEBD13EF8022103832220204FEE
:101643005554505554203E392E3556202020202005
:1016530020220BEBD15DF8022103832220202020DE
:101663002A4C4F434B45442A202020202020202071
:10167300220BEBD17CF802210383222A4C4F434BEC
:101683002A4F56455252414E4745212020202022C1
:101693000BEBD19BF802210383224C4F434B2A4F80
:1016A30055545055543E392E355620202020220BB8
:1016B300EBB41009E54B122702F802210300D1C74E
:1016C300F8022103832252656D6F746520525334EF
:1016D30038352049442D20202020220BEBD1E6F879
:1016E30002210383225253343835204F5645525238
:1016F300414E47452120202020220BEBF105F80223
:10170300210383225253343835204F5554502E3EF3
:10171300392E355620202020220BEBF124F802210C
:10172300038322202020202020202020202020206E
:10173300202020220BEBF13FF802210383222020FB
:10174300507265737320746F207365742020220BAD
:10175300EBB4092B2034057820022103E50AB400F9
:1017630019E50BB40014E50CB4000FE50DB4000A41
:10177300E50EB400057820022103782D022103B47D
:101783000A0DE50AB400047420802AF1CF8026B440
:101793000B06E50BF1CF801DB40D06E50CF1CF80F0
:1017A30014B40E06E50DF1CF800BB40F06E50EF170
:1017B300CF8002F1BCF802210383224F55545055C8
:1017C300543A202020202E20202056220483223029
:1017D300313233343536373839220BEBF1E5F80241
:1017E3002103832220204741494E3A2020203530CF
:1017F3003020202020202020220BEB1104F802218E
:1018030003832220204741494E3A202020316B2078
:1018130020202020202020220BEB1123F80221037B
:10182300832220204741494E3A202020322E356B17
:1018330020202020202020220BEB1143F80221033B
:10184300832220204741494E3A202020356B202017
:10185300202020202020220BEB1162F80221038399
:101863002220204741494E3A20202031306B20204E
:101873002020202020220BEB1181F8022103832258
:1018830020204741494E3A20202032356B2020202A
:1018930020202020220BEB11A0F802210383222019
:1018A300204741494E3A20202035306B202020200C
:1018B300202020220BEB11BFF802210383222020DA
:1018C3004741494E3A20202036306B2020202020EB
:1018D300202022BC00028024BC0102803BBC020207
:1018E3008050BC03028065BC0402807ABC050221DF
:1018F30083BC0602219DBC07000219B7C291740084
:10190300F5A320FFFDC2FF7400F5A320FFFDC2FF76
:10191300D291751F000219B7C29175A30020FFFD74
:10192300C2FF75A30120FFFDC2FFD291751F010203
:1019330019B7C29175A30020FFFDC2FF75A3022052
:10194300FFFDC2FFD291751F020219B7C29175A3A1
:101953000020FFFDC2FF75A30320FFFDC2FFD2914C
:10196300751F030219B7C29175A30020FFFDC2FFC3
:1019730075A30420FFFDC2FFD291751F040219B79E
:10198300C29175A30020FFFDC2FF75A30520FFFDD3
:10199300C2FFD291751F050219B7C29175A300202A
:1019A300FFFDC2FF75A30620FFFDC2FFD291751F85
:1019B300060219B7C2B2C20BC20A7FFF308DFDC245
:1019C3008DDFF9C22D75FE0802088A756D0075E674
:1019D3008A75DF5F780FD20C75BB00D2EC3004FD43
:1019E300C204758C99758A00C28D308DFDA9BEAA7B
:1019F300BDB90005BA0002806A75BB00D2EC3004A1
:101A0300FDC204758C99758A00C28D308DFDA9BE07
:101A1300AABDB90005BA000241CED201D20275A710
:101A230030A985AA8475A700BAFF11C3B90F004076
:101A330004D2088018C208097A008003C2080A7514
:101A4300A7308A84EAFE8985E9FD75A7007F2030E7
:101A53008DFDC28DDFF9300808D20BD205790F81D5
:101A63003B809675BB00D2EC3004FDC204758C99A3
:101A7300758A00C28D308DFDA9BEAABDC3BA05000B
:101A83005049D201D20375A730A985AA8475A7004E
:101A9300BA0011C3B900005004D2098018C2091951
:101AA3007AFF8003C2091A75A7308A84EAFE898502
:101AB300E9FD75A7007F20308DFDC28DDFF9300968
:101AC30008D20BD205790F813B8098D2EC7F883006
:101AD30004FDC204758CFF758A00C28D308DFDC272
:101AE3008DDFF1A9BEAABDE56DB40008896E8A6FCA
:101AF300056D802AB4010889708A71056D801FB451
:101B0300020889728A73056D8014B4030889748A84
:101B130075056D8009756D0489768A7780007578FF
:101B230000757900757A00E56F2571F57AE56E35F4
:101B330070F57974003400F578E57A2573F57AE564
:101B4300793572F57974003578F578E57A2575F588
:101B53007AE5793574F57974003578F578E57A2581
:101B630077F57AE5793576F57974003578F578E5A2
:101B730078E579E57A79007A00756C05E57AB40041
:101B83000CE579B4000BE578B4000D8027157A8055
:101B9300111579757AFF800A15787579FF757AFFC3
:101BA3008000D56CD7756C05EAB4FF05097A00800F
:101BB300CB0A80C8E56DB40405756D008003021A75
:101BC300CE20473CC3BA0F004002803275A730A92C
:101BD30085AA8475A700BA0011C3B900005004D2C6
:101BE300098055C209197AFF8003C2091A75A73003
:101BF3008A84EAFE8985E9FD75A700021ACED247D9
:101C0300C3BA0100403275A730A985AA8475A7001D
:101C1300BAFF11C3B90F004004D209801BC20909DE
:101C23007A008003C2090A75A7308A84EAFE89858F
:101C3300E9FD75A700021ACEC247C20175EE70C254
:101C430002C203C209C208C20CC22E7FF2208D0257
:101C530080FBC28DDFF7C2EBC20BC20A75BE0075F3
:101C6300BD00C2317A00D212C21BC222C223C2A457
:101C7300C2A5D2A6D20590F200E493B40120EE856A
:101C830033F095F0FEED8532F095F0FDC3EE85530C
:101C9300F025F0FEED8552F035F0FD021D96B402FD
:101CA30020EE8535F095F0FEED8534F095F0FDC31B
:101CB300EE8555F025F0FEED8554F035F0FD021D5F
:101CC30096B40320EE8537F095F0FEED8536F0955A
:101CD300F0FDC3EE8557F025F0FEED8556F035F0A7
:101CE300FD021D96B40420EE8539F095F0FEED85D6
:101CF30038F095F0FDC3EE8559F025F0FEED8558DB
:101D0300F035F0FD021D96B40520EE853BF095F00D
:101D1300FEED853AF095F0FDC3EE855BF025F0FE10
:101D2300ED855AF035F0FD021D96B40620EE853D93
:101D3300F095F0FEED853CF095F0FDC3EE855DF08A
:101D430025F0FEED855CF035F0FD021D96B407200D
:101D5300EE853FF095F0FEED853EF095F0FDC3EE88
:101D6300855FF025F0FEED855EF035F0FD021D96F2
:101D7300B40820EE8541F095F0FEED8540F095F036
:101D8300FDC3EE8551F025F0FEED8550F035F0FDF5
:101D9300021D96204903022103020D89BB4C0280D8
:101DA30003021F367B02758C00758A00C28D308D4D
:101DB300FDDBF37B00D22C200E08200D3420465F80
:101DC300E121C20E204A1FE51DC3B40505751D059B
:101DD300E11E051DE51DC3B4040040028004C24B8F
:101DE300E11ED24BE11EE54BB40802E11E054BE1B7
:101DF3001EC20D204A1EE51DB40105751D01E11E1D
:101E0300151DE51DC3B4040040028004C24BE11E4E
:101E1300D24BE11EE54BB40102E11E154BE11EC29C
:101E230046C2137B00E51DB40115204509D2457553
:101E3300EE40C244E11EC24575EE70C244E11EE5A8
:101E43001DB40206C244D240E11EE51DB40304C220
:101E530044E11EE51DB404028003021EE7C24420D0
:101E63004942D249D2ACC2A3C2AF75B7A575B7F187
:101E7300758F0390F000E4F0758F0075B7A575B703
:101E8300F1758F0190F000E51DF0758F0075B7A512
:101E930075B7F1758F0190F001E54BF0758F00D2A6
:101EA300AFE48077C249C2AF75B7A575B7F1758F37
:101EB3000390F000E4F0758F0075B7A575B7F17561
:101EC3008F0190F0007400F0758F0075B7A575B79A
:101ED300F1758F0190F001E54BF0758F00D2AFE4FF
:101EE300C2AC8037E51DB40532204A04D24A802BA8
:101EF300C24AC2AF75B7A575B7F1758F0390F000ED
:101F0300E4F0758F0075B7A575B7F1758F0190F083
:101F130001E54BF0758F00D2AF8000751E15758CEF
:101F230000758A00C28D308DFDD51EF2D212C22DEE
:101F330002088A0BBB1517E51DB40105787E022143
:101F430003B40405787E0221037820022103BB2910
:101F53001AE51DB40205787E022103B40508204A60
:101F630005787E0221037820022103BB350D304A18
:101F730005787E0221037820022103BB370F304B03
:101F83000C204909E54B122702F8022103BB3D0F40
:101F9300E51DB40305787E0221037820022103EBBB
:101FA300204509204B0DF1C7F80221031220B4F894
:101FB300022103204907122016F80221031220658B
:101FC300F80221038322202020204F5054494F4EF2
:101FD30053202020202020202020202020204C6F50
:101FE300636B202020202020202020202020202060
:101FF30020205374616E64627920202020202020E9
:1020030020202020202043616E63656C2020203136
:102013002F32228322202020204F5054494F4E53E9
:1020230020202020202020202020202020456E61F9
:10203300626C652052533438352020202020202024
:102043002052533438352D4944205B205D20202015
:102053002020202020202020202020202020322F5C
:1020630032228322202020204F5054494F4E5320A8
:10207300202020202020202020202044697361621A
:102083006C65205253343835202020202020202016
:10209300202020202020202020202020202020203D
:1020A300202020202020202020202020202020202D
:1020B300228322202020204F5054494F4E5320206A
:1020C3002020202020202020202020556E6C6F63AC
:1020D3006B202020202020202020202020202020B2
:1020E30020202020202020202020202020202020ED
:1020F30020202020202020202020202020202022DB
:10210300D20F20123A20135ABB0D1DD2137B007538
:102113008C00758A00C28D308DFD201506201103B9
:1021230002088AD21402088A0BEB3132F880338317
:10213300223A0B061E391B6C5470380E010222BB67
:1021430001157B00758C00758A00C28D308DFD757D
:102153008922C21202088A0BEB3161F880048322C0
:1021630003222012032013057511F880037511FA59
:10217300E8035480F5108510F0E803030354402569
:1021830010F5F0F510E8030303030354202510F5BD
:10219300F0F510E80303030303030354102510F5BC
:1021A30012E8C4035480F5108510F0E8C403030358
:1021B30054402510F5F0F510E8C40303030303545A
:1021C300202510F5F0F510E8C4030303030303030C
:1021D30054102510F513D2FF3010FDC21002088AE7
:1021E300304303022236C2A4C2A5D2A67589217840
:1021F30004758A00758C00308DFDC28DD8F3C2A49E
:10220300D2A5C2A67804758A00758C00308DFDC2F4
:102213008DD8F3D2A4C2A5C2A67804758A00758CA2
:1022230000308DFDC28DD8F3C2A4C2A5D2A6D2437D
:10223300758922304203022994BB4C1B7BFF758CAA
:1022430000758A00C28D308DFD1BBB00F17589229C
:10225300D2127B00022103202403022297202503AC
:1022630002230420260302236E2027030223D820FF
:1022730028030224422029030224AC202A03022536
:1022830016202B03022580203F030225E8D2127B70
:1022930000022716D297C293C292C297758C00751B
:1022A3008A00C28D308DFDD56A05D56B028003028D
:1022B3002301756ADD891B8A1C79007A0075490040
:1022C30075F002C3E51B75F00284F9E5F0B4010370
:1022D300754980C3E51C75F00284C32549FAE439C6
:1022E300F930330C89328A33755200755300800AF2
:1022F30089528A53753200753300D2248003022534
:10230300FAD297D293C292C297758C00758A00C293
:102313008D308DFDD56A02800302236B756ADD89DA
:102323001B8A1C79007A0075490075F002C3E51B0E
:1023330075F00284F9E5F0B40103754980C3E51C27
:1023430075F00284C32549FAE439F930330C893432
:102353008A35755400755500800A89548A55753439
:1023630000753500D22580030225FAD297C293D295
:1023730092C297758C00758A00C28D308DFDD56A27
:102383000280030223D5756ADD891B8A1C79007AD2
:102393000075490075F002C3E51B75F00284F9E589
:1023A300F0B40103754980C3E51C75F00284C325AD
:1023B30049FAE439F930330C89368A377556007592
:1023C3005700800A89568A57753600753700D2261A
:1023D30080030225FAD297D293D292C297758C00CA
:1023E300758A00C28D308DFDD56A02800302243FB9
:1023F300756ADD891B8A1C79007A0075490075F0BE
:1024030002C3E51B75F00284F9E5F0B401037549D5
:1024130080C3E51C75F00284C32549FAE439F93019
:10242300330C89388A39755800755900800A8958E0
:102433008A59753800753900D22780030225FAD2EC
:1024430097C293C292C297758C00758A00C28D3071
:102453008DFDD56A0280030224A9756ADD891B8A72
:102463001C79007A0075490075F002C3E51B75F00D
:102473000284F9E5F0B40103754980C3E51C75F0E6
:102483000284C32549FAE439F930330C893A8A3B8B
:10249300755A00755B00800A895A8A5B753A007524
:1024A3003B00D22880030225FAD297D293C292C26C
:1024B30097758C00758A00C28D308DFDD56A0280B8
:1024C30003022513756ADD891B8A1C79007A00755E
:1024D300490075F002C3E51B75F00284F9E5F0B419
:1024E3000103754980C3E51C75F00284C32549FACD
:1024F300E439F930330C893C8A3D755C00755D0025
:10250300800A895C8A5D753C00753D00D229800391
:102513000225FAD297C293D292C297758C00758A1C
:1025230000C28D308DFDD56A02800302257D756A58
:10253300DD891B8A1C79007A0075490075F002C396
:10254300E51B75F00284F9E5F0B40103754980C316
:10255300E51C75F00284C32549FAE439F930330CDC
:10256300893E8A3F755E00755F00800A895E8A5FD7
:10257300753E00753F00D22A80030225FAD297D216
:1025830093D292C297758C00758A00C28D308DFDEF
:10259300D56A0280030225E5756ADD891B8A1C79E9
:1025A300007A0075490075F002C3E51B75F00284DB
:1025B300F9E5F0B40103754980C3E51C75F00284A5
:1025C300C32549FAE439F930330C89408A417550FF
:1025D30000755100800A89508A5175400075410089
:1025E300D22B0225FA758C00758A00C28D308DFDC1
:1025F300D56A02D23F80000BBB3D08302405782A00
:10260300022103BB3E08302405782A022103BB3F85
:1026130008302505782A022103BB400830250578B8
:102623002A022103BB4108302605782A022103BB75
:102633004208302605782A022103BB4308302705C8
:10264300782A022103BB4408302705782A02210394
:10265300BB4508302805782A022103BB46083028E9
:1026630005782A022103BB4708302905782A02216D
:1026730003BB4808302905782A022103BB490830E7
:102683002A05782A022103BB4A08302A05782A0240
:102693002103BB4B08302B05782A022103BB4C08CE
:1026A300302B05782A02210300EBD1B3F802210372
:1026B3008322202020415454454E54494F4E21201B
:1026C30020202020202020462E2D43616C69627239
:1026D3006174696F6E202020202020706C65617307
:1026E3006520776169742E2E2E2020202020202043
:1026F30020202020202020202020202020202204F1
:10270300832230313233343536373839414243440A
:10271300454622C2AF75B7A575B7F1758F0390F91A
:1027230010E4F0758F0075B7A575B7F1758F01903B
:10273300F910E532F0758F00E475B7A575B7F1753B
:102743008F0190F911E533F0758F00E475B7A57526
:10275300B7F1758F0190F912E534F0758F00E475C8
:10276300B7A575B7F1758F0190F913E535F0758F3E
:1027730000E475B7A575B7F1758F0190F914E536C7
:10278300F0758F00E475B7A575B7F1758F0190F9F2
:1027930015E537F0758F00E475B7A575B7F1758F3B
:1027A3000190F916E538F0758F00E475B7A575B794
:1027B300F1758F0190F917E539F0758F00E475B75E
:1027C300A575B7F1758F0190F918E53AF0758F008B
:1027D300E475B7A575B7F1758F0190F919E53BF06D
:1027E300758F00E475B7A575B7F1758F0190F91A68
:1027F300E53CF0758F00E475B7A575B7F1758F01EA
:1028030090F91BE53DF0758F00E475B7A575B7F139
:10281300758F0190F91CE53EF0758F00E475B7A53F
:1028230075B7F1758F0190F91DE53FF0758F00E4E1
:1028330075B7A575B7F1758F0190F91EE540F07571
:102843008F00E475B7A575B7F1758F0190F91FE592
:1028530041F0758F00E475B7A575B7F1758F0190D9
:10286300F920E552F0758F00E475B7A575B7F175DA
:102873008F0190F921E553F0758F00E475B7A575C5
:10288300B7F1758F0190F922E554F0758F00E47567
:10289300B7A575B7F1758F0190F923E555F0758FDD
:1028A30000E475B7A575B7F1758F0190F924E55666
:1028B300F0758F00E475B7A575B7F1758F0190F9C1
:1028C30025E557F0758F00E475B7A575B7F1758FDA
:1028D3000190F926E558F0758F00E475B7A575B733
:1028E300F1758F0190F927E559F0758F00E475B7FD
:1028F300A575B7F1758F0190F928E55AF0758F002A
:10290300E475B7A575B7F1758F0190F929E55BF00B
:10291300758F00E475B7A575B7F1758F0190F92A26
:10292300E55CF0758F00E475B7A575B7F1758F0198
:1029330090F92BE55DF0758F00E475B7A575B7F1D8
:10294300758F0190F92CE55EF0758F00E475B7A5DE
:1029530075B7F1758F0190F92DE55FF0758F00E480
:1029630075B7A575B7F1758F0190F92EE550F07520
:102973008F00E475B7A575B7F1758F0190F92FE551
:1029830051F0758F00E4D242D2127B00D2AF022104
:1029930003BB4C14D2A4C2A5C2A6C23E75B1FF7537
:1029A30097A575970680FE000BEB31B3F802210360
:1029B3008322202056616C7565732073617665648C
:1029C30020202020202020207375636365737366A5
:1029D300756C6C79202020202020202020202020AE
:1029E300202020202020202020202020202072654D
:1029F3007374617274696E672E2E2E20202022BBA1
:102A03004C08C2A4D2A5C2A680FE75A8C00BEB5188
:102A130018F802210383222020464154414C2045CB
:102A230052524F5221202020202020706C65617368
:102A33006520636F6E746163743A202020202069DF
:102A43006E666F40766563746F72666F726365203E
:102A53002020202E646520202020202020202020DC
:042A630020202022ED
:00000001FF
