:020000040000FA
:0300000002044BAC
:03000B0002024CA2
:0300230002007662
:03002B0002025777
:030033000202BB0B
:0300430002033481
:03004B0002042D7F
:0300530002043A6A
:1000730002026EC0E0C0D075A700758920204D0331
:1000830002009B90000F3099FDC299A3E06004F534
:100093009980F3C24D02024175F010900000740084
:1000A300F0D5F0028003A380F5900000E599F0C23B
:1000B30098758C1D758A00C28D209806308DFA02C2
:1000C300023E900001E599F0C298758C1D758A0077
:1000D300C28D209806308DFA02023E900002E59907
:1000E300F0C298758C1D758A00C28D209806308DDC
:1000F300FA02023E900003E599F0C298758C1D75D3
:100103008A00C28D209806308DFA02023E900004C8
:10011300E599F0C298758C1D758A00C28D209806EA
:10012300308DFA02023E900005E599F0C298758C75
:100133001D758A00C28D209806308DFA02023E900A
:100143000006E599F0C298758C1D758A00C28D2052
:100153009806308DFA02023E900007E599F0C298A6
:10016300758C1D758A00C28D209806308DFA0202A7
:100173003E900008E599F0C298758C1D758A00C2FF
:100183008D209806308DFA02023E900009E599F021
:10019300C298758C1D758A00C28D209806308DFA21
:1001A30002023E90000AE599F0C298758C1D758A8B
:1001B30000C28D209806308DFA02023E90000BE5B6
:1001C30099F0C298758C1D758A00C28D20980630EF
:1001D3008DFA02023E90000CE599F0C298758C1DD1
:1001E300758A00C28D209806308DFA02023E900077
:1001F3000DE599F0C298758C1D758A00C28D209803
:1002030006308DFA02023E90000EE599F0C2987511
:100213008C1D758A00C28D209806308DFA02023E2D
:1002230090000FE599F0C298758C1D758A00C28DF8
:10023300209806308DFA02023E800100D24C759858
:1002430070758922D0D0D0E032C0E0C0D0C28DD04A
:10025300D0D0E032C0E0C0D075C804203E08D54AF3
:1002630005754A0ED248D0D0D0E032C0E0C0D07578
:100273009500759400759104301638200511D53119
:100283000E753190E51FAC1FC205D22D75FE0820F7
:100293000119200B1E300A1BD50805750820B23240
:1002A300203208C2A4D2A5C2A68008C2A4C2A5D285
:1002B300A68000D0D0D0E032C0E0C0D0C2FF75A786
:1002C30020759A4475A700300F62C2A0758CFF7524
:1002D3008AFEC28D308DFD8511A375A720E5F744F5
:1002E3000FB40FF975A7000000000000000000859F
:1002F30012A375A720E5F7440FB40FF975A7000003
:10030300000000000000008513A375A720E5F74453
:100313000FB40FF975A7000000000000000000E50E
:10032300A1447FB47FF9D2A0C20FD210D0D0D0E0C5
:1003330032C0E0C0D075FDFFE5EDB4FF0620160620
:100343000204280203D120830D204508204905D249
:100353002E75FDF7812830965B2049F830950530DE
:10036300942A81283095FD3094FA758C00758A00A3
:10037300C28D308DFD3095EC3094E9D20DC20EC2A2
:100383004675FE0075319075470180423094FD300B
:1003930095FA758C00758A00C28D308DFD3094EC12
:1003A3003095E9D20EC20DC24675FE0075319075C7
:1003B30047018071758C00758A00C28D308DFD20D8
:1003C3009663204407D22D7547708002D246758C00
:1003D30000758A00C28D308DFDD547F27547FF75D4
:1003E300480F75EDFF80003096028039308DF87527
:1003F3008C00758A00C28DE547D547EB7547FFD55D
:1004030048E5300520D2447B00C21375EDBF754724
:1004130005758921758C00758A00C28D308DFDD5D7
:1004230047F2758922D0D0D0E032C0E0C0D0D231BB
:10043300C2EBD0D0D0E032C0E0C0D0C2EDA9BEAA9A
:10044300BDD204D0D0D0E032C2AF7597DE7597AD80
:10045300D2AF75816075A90075E10375E20075E39C
:10046300C075D40F75F1F975A45175F2FF75A58F99
:1004730075EE7075A72075F3FB75A67B75A70075E0
:10048300A72075F4FF759C0C75A70075D14075A75F
:100493003075918075938075920175940175840010
:1004A300758508758900758A0875888875A700752C
:1004B3009870758E027588D2758922758DE475C81A
:1004C3000475CB0075CA0075910475A8E075E60A3A
:1004D30075A14775A20175F80375A720759A007574
:1004E300A70075E8A075DF1FC2EBC2ED75D1807858
:1004F3000179007A007B007C007D087E007FFF7518
:100503000820750A00750B00750C00750D00750E3B
:1005130000750F0275100075110075120075130038
:100523007515007516007517007518007519007597
:100533001A00751D017531907532007533007534DD
:10054300007535007536007537007538007539004C
:10055300753A00753B00753C00753D00753E0075AE
:100563003F007540007541007542007543007544B6
:1005730000754500754600754700754800754900CC
:10058300754A01754B01754C007550007551007526
:100593005200755300755400755500755600755714
:1005A30000755800755900755A00755B00755C003D
:1005B300755D00755E00755F00756AFF756B037589
:1005C3006C00756D00756E00756F00757000757148
:1005D300007572007573007574007575007576008B
:1005E300757700757800757900757A00C200C2933B
:1005F300C2927F06208D0280FBC28DDFF7C201C24B
:1006030002C203C204C20AC20BD297C2A1C205C26C
:1006130007C206C2B2C208C209C224C225C226C288
:1006230027C228C229C22AC22BC241C2A4C2A5D250
:10063300A6C212C22EC210C20FC213D2A0C217C2C8
:1006430016C218C214C215D21AC219C21DC20EC2D2
:100653000DC2A1C212C22CC22D75BE0075BD00C24F
:1006630031C235C23EC240C242C243C244C245C285
:1006730047C249C24BC24AC24D75A730AD85AE844D
:1006830075A700C211C21FC220D21C758921758CA7
:1006930000758A00C28D308DFD758922D2A1208319
:1006A30005C23F021264E490F00093B4040DD249F2
:1006B300D2ACC2A3751D04D24BD22DE490F00193AA
:1006C300C3B409004005754B018002F54B75FE0864
:1006D300E490F91093F532E490F91193F533E49033
:1006E300F91293F534E490F91393F535E490F91482
:1006F30093F536E490F91593F537E490F91693F5ED
:1007030038E490F91793F539E490F91893F53AE43E
:1007130090F91993F53BE490F91A93F53CE490F9B9
:100723001B93F53DE490F91C93F53EE490F91D937A
:10073300F53FE490F91E93F540E490F91F93F541DA
:10074300E490F92093F552E490F92193F553E49062
:10075300F92293F554E490F92393F555E490F924A1
:1007630093F556E490F92593F557E490F92693F51C
:1007730058E490F92793F559E490F92893F55AE44E
:1007830090F92993F55BE490F92A93F55CE490F9E9
:100793002B93F55DE490F92C93F55EE490F92D939A
:1007A300F55FE490F92E93F550E490F92F93F5510A
:1007B300E490F20093B40117D224C225C226C227C3
:1007C300C228C229C22AC22B7C008C1F021264B425
:1007D3000217C224D225C226C227C228C229C22A8E
:1007E300C22B7C018C1F021264B40317C224C225DE
:1007F300D226C227C228C229C22AC22B7C028C1F3E
:10080300021264B40417C224C225C226D227C22806
:10081300C229C22AC22B7C038C1F021264B405179F
:10082300C224C225C226C227D228C229C22AC22B69
:100833007C048C1F021264B40617C224C225C2268C
:10084300C227C228D229C22AC22B7C058C1F0212BE
:1008530064B40717C224C225C226C227C228C229EC
:10086300D22AC22B7C068C1F021264B40814C22441
:10087300C225C226C227C228C229C22AD22B7C077C
:100883008C1F021264304C04C24C8003020F987513
:100893007F01900000E57FB4040DE54B122701F5BD
:1008A300F0E0B5F028800811BDF5F0E0B5F01EA327
:1008B300057FE57FB411DE0218FE832244563A20F9
:1008C30020353030000000000000000022757F0159
:1008D300900000E57FB4040DE54B122701F5F0E02D
:1008E300B5F028800811FBF5F0E0B5F01EA3057FF5
:1008F300E57FB411DE02191A832244563A202031CF
:100903003030300000000000000022757F019000AD
:1009130000E57FB4040DE54B122701F5F0E0B5F0D7
:100923002880083139F5F0E0B5F01EA3057FE57F97
:10093300B411DE021934832244563A202032303077
:10094300300000000000000022757F01900000E5E8
:100953007FB4040DE54B122701F5F0E0B5F02880D4
:10096300083177F5F0E0B5F01EA3057FE57FB411FC
:10097300DE02194E832244563A20203530303000AF
:1009830000000000000022757F01900000E57FB4A5
:10099300040DE54B122701F5F0E0B5F0288008318E
:1009A300B5F5F0E0B5F01EA3057FE57FB411DE02D7
:1009B3001968832244563A20203130303030000009
:1009C3000000000022757F01900000E57FB4040D54
:1009D300E54B122701F5F0E0B5F028800831F3F577
:1009E300F0E0B5F01EA3057FE57FB411DE021982A6
:1009F300832244563A202032303030300000000049
:100A0300000022757F01900000E57FB4040DE54BE3
:100A1300122701F5F0E0B5F02880085131F5F0E038
:100A2300B5F01EA3057FE57FB411DE02199C832276
:100A330044563A20203430303030000000000000AB
:100A430022757F01900000E57FB4040DE54B12276A
:100A530001F5F0E0B5F0288008516FF5F0E0B5F04E
:100A63001EA3057FE57FB411DE020DBB832244562E
:100A73003A2020564F4C543F0000000000002275DE
:100A83007F01900000E57FB4040DE54B122701F5CB
:100A9300F0E0B5F02A800851AFF5F0E0B5F020A3FF
:100AA300057FE57FB411DED22E02088883224456E7
:100AB3003A2020415A000000000000000000227587
:100AC3007F01900000E57FB4040DE54B122701F58B
:100AD300F0E0B5F030800851F5F5F0E0B5F026A36D
:100AE300057FE57FB411DE75B1FF7597A575970195
:100AF30080FE832244563A202052535400000000C3
:100B03000000000022757F01900000E57FB4040D12
:100B1300E54B122701F5F0E0B5F02880087133F5B5
:100B2300F0E0B5F01EA3057FE57FB411DE020CC330
:100B3300832244563A20203F0000000000000000BA
:100B4300000022757F01900000E57FB4040DE54BA2
:100B5300122701F5F0E0B5F02880087171F5F0E097
:100B6300B5F01EA3057FE57FB411DE020EF08322EC
:100B730044563A20205357563F000000000000001F
:100B830022757F01900000E57FB4040DE54B122729
:100B930001F5F0E0B5F028800871AFF5F0E0B5F0AD
:100BA3001EA3057FE57FB411DE020F1F8322445687
:100BB3003A20205345523F000000000000002275F8
:100BC3007F01900000E57FB4040DE54B122701F58A
:100BD300F0E0B5F028800871EDF5F0E0B5F01EA364
:100BE300057FE57FB411DE020E4A832244563A2084
:100BF3002049444E3F0000000000000022757F01A1
:100C0300900000E57FB4040DE54B122701F5F0E0F9
:100C1300B5F0228008912BF5F0E0B5F018A3057F1D
:100C2300E57FB40BDE020C3B832244563A205F403F
:100C33003D5345522202088890000FE0B400F6C2EB
:100C4300AF75B7A575B7F1758F0390E000E4F07544
:100C53008F0075B7A575B7F1758F0190000AE09005
:100C6300E000F0758F00E475B7A575B7F1758F01D6
:100C730090000BE090E001F0758F00E475B7A57567
:100C8300B7F1758F0190000CE090E002F0758F00D2
:100C9300E475B7A575B7F1758F0190000DE090E08D
:100CA30003F0758F00E475B7A575B7F1758F0190E3
:100CB300000EE090E004F0758F00E4D2AF020F98CD
:100CC3009000107444F0A37456F0A3743AF0A3E5B3
:100CD3004B122701F0A3743DF0A37400F0A374003A
:100CE300F0A37400F0A37400F0A37400F0A37400E5
:100CF300F0ECB400149000157435F0A37430F0A335
:100D03007430F0A37400F0E18CB4011090001574FA
:100D130031F0A3744BF0A37400F0E18CB402109093
:100D230000157432F0A3744BF0A37400F0E18CB49B
:100D330003109000157435F0A3744BF0A37400F006
:100D4300E18CB404149000157431F0A37430F0A353
:100D5300744BF0A37400F0E18CB405149000157487
:100D630032F0A37430F0A3744BF0A37400F0E18C61
:100D73009000157434F0A37430F0A3744BF0A37493
:100D830000F0E18C75F001900010E5F0B40407E584
:100D93004B1227018008B1A7B40003F0E18CF0A344
:100DA30005F080E6832244563A203D4155544F5A7C
:100DB30045524F3D4F4B002275F001900010E5F076
:100DC300B40407E54B1227018063B40626303304CD
:100DD300742B8059C3E50A7012E50B700EE50C7095
:100DE3000AE50D7006E50E70028004742D803E74D2
:100DF30020803AB40707E50A1227018030B40807B8
:100E0300E50B1227018026B40A07E50C122701809F
:100E13001CB40B07E50D1227018012B40C07E50E75
:100E23001227018008D136B40003F0E18CF0A3054A
:100E3300F0808B832244563A203D2B30302E3030C5
:100E43003056000000002275F001900010E5F0B468
:100E5300470AE490E00093900056803CB4480AE4CB
:100E630090E00193900057802FB4490AE490E00288
:100E7300939000588022B44A0AE490E003939000D0
:100E8300598015B44B0AE490E0049390005A80080B
:100E9300D1A1B40003F0E18CF0A305F080AF83226D
:100EA30056465420566563746F72666F7263652D80
:100EB300546563686E6F6C6F67696573204456345D
:100EC300304B20536F667477617265766572736910
:100ED3006F6E3A56312E30372053657269616C6EEE
:100EE300756D6265723A7878787878002275F001CA
:100EF300900010E5F0F106B40003F0E18CF0A305D7
:100F0300F080F08322536F66747761726576657241
:100F130073696F6E3A56312E3037002275F00190A7
:100F23000010E5F0B40E0AE490E0009390001D80F9
:100F33003CB40F0AE490E0019390001E802FB4109C
:100F43000AE490E0029390001F8022B4110AE49017
:100F5300E003939000208015B4120AE490E0049318
:100F63009000218008F176B40003F0801CF0A30503
:100F7300F080AF832253657269616C6E756D626533
:100F8300723A78787878780022D2A3D24DD2992019
:100F93004DFDC2A300304003021289300103021940
:100FA300CD302E028019200B05200A138008C2A41D
:100FB300D2A5C2A68009203E06C2A4C2A5D2A620FD
:100FC3003E0C30160630410320480302124975E6F1
:100FD3008675BB0F75DF3F75B24075C60475C56571
:100FE30075C40275C371D2EC758CFF758A00C28D0E
:100FF300308DFDA9BEAABD30310CD23AC23BC23CF2
:10100300C23DC23101B975E68675BB0F75DF3F7509
:10101300B24075C60775C5D075C40575C3DCD2EC7F
:10102300758CFF758A00C28D308DFDA9BEAABD30B7
:10103300310CC23AD23BC23CC23DC231807875E624
:101043008675BB0F75DF3F75B24075C60B75C53B23
:1010530075C40975C347D2EC758CFF758A00C28DC0
:10106300308DFDA9BEAABD30310CC23AC23BD23C81
:10107300C23DC231804075E68675BB0F75DF3F7593
:10108300B24075C60E75C5A675C40775C3D0D2EC3C
:10109300758CFF758A00C28D308DFDA9BEAABD3047
:1010A300310CC23AC23BC23CD23DC2318008C23A83
:1010B300C23BC23CC23D75E68675BB0075DF3F751A
:1010C300B24075C60075C50075C40E75C3D8D2ECA1
:1010D30030ECFD758CFF758A00C28D308DFDA9BE85
:1010E300AABD303106D20AC231800075BB0075C675
:1010F3000075C50075C40F75C3A0D2EC30ECFD7547
:101103008CFF758A00C28D308DFDA9BEAABD30311A
:1011130008D20BD20AC231800100C3B901005008C2
:10112300C3BA010050028006D233C234806275BB59
:101133000175C60075C50075C40E75C3D8D2EC30F1
:10114300ECFD758CFF758A00C28D308DFDA9BEAA9A
:10115300BDC233D234303106D20AC231800075BBEE
:101163000179007A0075C60075C50075C40F75C393
:10117300A0D2EC30ECFD758CFF758A00C28D308DEA
:10118300FDA9BEAABD303108D20AD20BC2318000FC
:10119300C248300502800302124989158A1689174D
:1011A3008A18751900751A00891B8A1C75F002E5E7
:1011B30018B40007E517B400068021151880071539
:1011C300177518FF8000D5F0E675F002E51AB4FF35
:1011D300070519751A0080D7051A80D3EA2516FA70
:1011E300E93515F9EA251AFAE93519F9750A007589
:1011F3000B00750C00750D00750E00EAB4000BE9C9
:10120300B400028041197AFF80011AE50EB4092265
:10121300750E00E50DB4091E750D00E50CB4091A31
:10122300750C00E50BB40916750B00E50AB4091239
:101233008014050E80C5050D80C1050C80BD050B0E
:1012430080B9050A80B5302C1820440C20450920AC
:101253004906200E0E200D15200506302D03021819
:10126300D58023BC06047C00800D0C800ABC0004DE
:101273007C0680031C8000C205C22DC20EC20DD2A3
:10128300127B000221023012030221022013030207
:101293002102303E030221E23040030213A930163B
:1012A3000F304403021D9E300003022A0102144939
:1012B30030350302137AC2A4C2A5D2A6BB4C207B4D
:1012C30015758921758C00758A00C28D308DFD1BC3
:1012D300BB00F1D2357589227B00D212020888BB8C
:1012E3003F0A90E000E493F80B022102BB400AE4BA
:1012F30090E00193F80B022102BB410AE490E00263
:1013030093F80B022102BB420AE490E00393F80B2B
:10131300022102BB430AE490E00493F80B0221028A
:101323000BEB712BF80221028322202020202020A6
:1013330020202020202020202020202020202020AA
:10134300202046524143545552452020202020203E
:101353002020202020544543484E4F4C4F475920CE
:10136300202020202020534E3A20202020202020FF
:101373002076312E303722C2A4C2A5D2A6D216D2ED
:10138300400213A9BB4C68D216C2AF7B55758921A5
:10139300758C00758A00C28D2096028039308DF8D5
:1013A3001BBB00ECD240C2A1758C00758A00C28DB4
:1013B300308DFDD2A1C2A4C2A5C2A63096FD758C04
:1013C30000758A00C28D308DFD75EE70D297C2AF65
:1013D3002049032096FDD2AFC297D2417589227B63
:1013E3000075E68AC240C20EC20DC2130208880B02
:1013F300EB71FAF8022102832220202020202020F2
:101403002020202020202020202020202020507257
:10141300657373202041444A5553542020202020D3
:10142300202020746F2061637469766174652020C5
:1014330020202020202020202020202020202020A9
:10144300202020202022C22C201B2ABB14067B0034
:10145300D21B8021202E0F203A0F203B0F203C0F60
:10146300203D0F02153C0215D702155B02157A02C7
:1014730015990215B820223CBB14067B00D22280AA
:1014830033200A0C2045062049210215F602165383
:10149300200B0C2045062049180216340216912011
:1014A30045062049090216150216720216B00216E5
:1014B300DC0216FB202339BB14067B00D2238030C9
:1014C300BC00030217DBBC01030217FABC020302D0
:1014D300181ABC030302183ABC0403021859BC05CA
:1014E30003021878BC0603021897BC07030218B658
:1014F300BB10047B008012202E06300509201C033C
:1015030002171A0217500217353001030219CD7B57
:10151300CC758C00758A00308DFDC28DDBF3D21241
:10152300C21BC222C223D22C202E03020888D50F4D
:1015330005750F02D2010208880BEBB144F80221B2
:101543000283222020202020202020202020202051
:1015530020202020202020220BEBB163F80221025F
:1015630083224C502D46494C544552203130303063
:10157300487A20202020220BEBB182F8022102833B
:10158300224C502D46494C5445522020333030488C
:101593007A20202020220BEBB1A1F8022102832222
:1015A3004C502D46494C5445522020203530487A22
:1015B30020202020220BEBB1C0F802210283224C11
:1015C300502D46494C544552202020204F4646205A
:1015D300202020220BEBB1DFF802210283222020FE
:1015E3002A2A4155544F5A45524F2A2A2020202057
:1015F3002020220BEBB1FEF80221028322202020BF
:1016030020202020202020202020202020202020D7
:1016130020220BEBD11DF802210283222020204F30
:1016230056455252414E474521202020202020205C
:10163300220BEBD13CF8022102832220204F555488
:10164300505554203E392E3556202020202020226C
:101653000BEBD15BF80221028322202020202A4CAD
:101663004F434B45442A2020202020202020220BBA
:10167300EBD17AF802210283222A4C4F434B2A4FA3
:1016830056455252414E47452120202020220BEB44
:10169300D199F802210283224C4F434B2A4F5554D0
:1016A3005055543E392E355620202020220BEBB4C2
:1016B3001009E54B122701F802210200D1C5F802F7
:1016C3002102832252656D6F74652052533438357D
:1016D3002049442D20202020220BEBD1E4F80221C5
:1016E3000283225253343835204F56455252414ECD
:1016F30047452120202020220BEBF103F802210291
:1017030083225253343835204F5554502E3E392EB0
:10171300355620202020220BEBF122F802210283F0
:1017230022202020202020202020202020202020B4
:1017330020220BEBF13DF80221028322202050727C
:1017430065737320746F207365742020220BEBB4D0
:10175300092B2034057820022102E50AB40019E59B
:101763000BB40014E50CB4000FE50DB4000AE50E4C
:10177300B400057820022102782D022102B40A0D5B
:10178300E50AB400047420802AF1CD8026B40B0648
:10179300E50BF1CD801DB40D06E50CF1CD8014B43D
:1017A3000E06E50DF1CD800BB40F06E50EF1CD80ED
:1017B30002F1BAF802210283224F55545055543A8C
:1017C300202020202E202020562204832230313254
:1017D30033343536373839220BEBF1E3F802210283
:1017E300832220204741494E3A20202035303020A3
:1017F300202020202020220BEB121803F8022102C4
:10180300832220204741494E3A202020316B20205B
:10181300202020202020220BEB1122F8022102831A
:101823002220204741494E3A202020322E356B207A
:10183300202020202020220BEB1142F802210283DA
:101843002220204741494E3A202020356B2020207A
:101853002020202020220BEB1161F8022102832299
:1018630020204741494E3A20202031306B20202050
:1018730020202020220BEB1180F80221028322205A
:10188300204741494E3A20202032356B202020202A
:10189300202020220BEB119FF8022102832220201B
:1018A3004741494E3A20202035306B20202020200C
:1018B3002020220BEB11BEF80221028322202047B5
:1018C30041494E3A20202036306B20202020202012
:1018D3002022BC00028024BC0102803BBC020280A7
:1018E30050BC03028065BC0402807ABC05022182DD
:1018F300BC0602219CBC07000219B6C2917400F514
:10190300A320FFFDC2FF7400F5A320FFFDC2FFD299
:1019130091751F000219B6C29175A30020FFFDC285
:10192300FF75A30120FFFDC2FFD291751F010219AC
:10193300B6C29175A30020FFFDC2FF75A30220FF6D
:10194300FDC2FFD291751F020219B6C29175A300A1
:1019530020FFFDC2FF75A30320FFFDC2FFD29175D7
:101963001F030219B6C29175A30020FFFDC2FF75C4
:10197300A30420FFFDC2FFD291751F040219B6C252
:101983009175A30020FFFDC2FF75A30520FFFDC2D3
:10199300FFD291751F050219B6C29175A30020FFEE
:1019A300FDC2FF75A30620FFFDC2FFD291751F067E
:1019B3000219B6C2B2C20BC20A7FFF308DFDC28DBF
:1019C300DFF9C22D75FE08020888756D0075E68A79
:1019D30075DF5F780FD20C75BB00D2EC3004FDC20B
:1019E30004758C99758A00C28D308DFDA9BEAABD80
:1019F300B90005BA0002806A75BB00D2EC3004FD61
:101A0300C204758C99758A00C28D308DFDA9BEAA5A
:101A1300BDB90005BA000241CDD201D20275A7308B
:101A2300A985AA8475A700BAFF11C3B90F004004A2
:101A3300D2088018C208097A008003C2080A75A771
:101A4300308A84EAFE8985E9FD75A7007F20308D01
:101A5300FDC28DDFF9300808D20BD205790F813A28
:101A6300809675BB00D2EC3004FDC204758C997569
:101A73008A00C28D308DFDA9BEAABDC3BA05005030
:101A830049D201D20375A730A985AA8475A700BAE4
:101A93000011C3B900005004D2098018C209197A91
:101AA300FF8003C2091A75A7308A84EAFE8985E993
:101AB300FD75A7007F20308DFDC28DDFF930090849
:101AC300D20BD205790F813A8098D2EC7F8830040B
:101AD300FDC204758CFF758A00C28D308DFDC28DE9
:101AE300DFF1A9BEAABDE56DB40008896E8A6F0552
:101AF3006D802AB4010889708A71056D801FB40254
:101B03000889728A73056D8014B4030889748A7511
:101B1300056D8009756D0489768A77800075780074
:101B2300757900757A00E56F2571F57AE56E357084
:101B3300F57974003400F578E57A2573F57AE5795B
:101B43003572F57974003578F578E57A2575F57A87
:101B5300E5793574F57974003578F578E57A257784
:101B6300F57AE5793576F57974003578F578E578A1
:101B7300E579E57A79007A00756C05E57AB4000CAD
:101B8300E579B4000BE578B4000D8027157A801150
:101B93001579757AFF800A15787579FF757AFF8054
:101BA30000D56CD7756C05EAB4FF05097A0080CBC4
:101BB3000A80C8E56DB40405756D008003021ACD73
:101BC30020473CC3BA0F004002803275A730A98575
:101BD300AA8475A700BA0011C3B900005004D20942
:101BE3008055C209197AFF8003C2091A75A7308A82
:101BF30084EAFE8985E9FD75A700021ACDD247C3A1
:101C0300BA0100403275A730A985AA8475A700BA26
:101C1300FF11C3B90F004004D209801BC209097A1E
:101C2300008003C2090A75A7308A84EAFE8985E920
:101C3300FD75A700021ACDC247C20175EE70C2023C
:101C4300C203C209C208C20CC22E7FF2208D0280D9
:101C5300FBC28DDFF7C2EBC20BC20A75BE0075BDB6
:101C630000C2317A00D212C21BC222C223C2A4C252
:101C7300A5D2A6D20590F200E493B40120EE8533F9
:101C8300F095F0FEED8532F095F0FDC3EE8553F04F
:101C930025F0FEED8552F035F0FD021D95B40220CE
:101CA300EE8535F095F0FEED8534F095F0FDC3EE4D
:101CB3008555F025F0FEED8554F035F0FD021D95B8
:101CC300B40320EE8537F095F0FEED8536F095F000
:101CD300FDC3EE8557F025F0FEED8556F035F0FD9A
:101CE300021D95B40420EE8539F095F0FEED85389C
:101CF300F095F0FDC3EE8559F025F0FEED8558F023
:101D030035F0FD021D95B40520EE853BF095F0FE00
:101D1300ED853AF095F0FDC3EE855BF025F0FEED21
:101D2300855AF035F0FD021D95B40620EE853DF091
:101D330095F0FEED853CF095F0FDC3EE855DF02555
:101D4300F0FEED855CF035F0FD021D95B40720EE45
:101D5300853FF095F0FEED853EF095F0FDC3EE85F1
:101D63005FF025F0FEED855EF035F0FD021D95B4C4
:101D73000820EE8541F095F0FEED8540F095F0FDED
:101D8300C3EE8551F025F0FEED8550F035F0FD02F0
:101D93001D95204903022102020D87BB4C028003DB
:101DA300021F357B02758C00758A00C28D308DFD54
:101DB300DBF37B00D22C200E08200D3420465FE19C
:101DC30020C20E204A1FE51DC3B40505751D05E19C
:101DD3001D051DE51DC3B4040040028004C24BE190
:101DE3001DD24BE11DE54BB40802E11D054BE11D7E
:101DF300C20D204A1EE51DB40105751D01E11D1527
:101E03001DE51DC3B4040040028004C24BE11DD292
:101E13004BE11DE54BB40102E11D154BE11DC2462B
:101E2300C2137B00E51DB40115204509D24575EEAB
:101E330040C244E11DC24575EE70C244E11DE51D7B
:101E4300B40206C244D240E11DE51DB40304C244FA
:101E5300E11DE51DB404028003021EE6C2442049CD
:101E630042D249D2ACC2A3C2AF75B7A575B7F1755B
:101E73008F0390F000E4F0758F0075B7A575B7F187
:101E8300758F0190F000E51DF0758F0075B7A5758E
:101E9300B7F1758F0190F001E54BF0758F00D2AF6C
:101EA300E48077C249C2AF75B7A575B7F1758F03E3
:101EB30090F000E4F0758F0075B7A575B7F1758FD5
:101EC3000190F0007400F0758F0075B7A575B7F138
:101ED300758F0190F001E54BF0758F00D2AFE4C22E
:101EE300AC8037E51DB40532204A04D24A802BC2A8
:101EF3004AC2AF75B7A575B7F1758F0390F000E4CB
:101F0300F0758F0075B7A575B7F1758F0190F00166
:101F1300E54BF0758F00D2AF8000751E15758C00F0
:101F2300758A00C28D308DFDD51EF2D212C22D02EC
:101F330008880BBB1517E51DB40105787E02210245
:101F4300B40405787E0221027820022102BB291AFB
:101F5300E51DB40205787E022102B40508204A0576
:101F6300787E0221027820022102BB350D304A051A
:101F7300787E0221027820022102BB370F304B0CFE
:101F8300204909E54B122701F8022102BB3D0FE569
:101F93001DB40305787E0221027820022102EB2082
:101FA3004509204B0DF1C6F80221021220B3F802B5
:101FB3002102204907122015F8022102122064F899
:101FC3000221028322202020204F5054494F4E5398
:101FD300202020202020202020202020204C6F6340
:101FE3006B202020202020202020202020202020A3
:101FF300205374616E6462792020202020202020E9
:10200300202020202043616E63656C202020312F27
:1020130032228322202020204F5054494F4E5320F8
:10202300202020202020202020202020456E6162B7
:102033006C65205253343835202020202020202066
:1020430052533438352D4944205B205D2020202015
:1020530020202020202020202020202020322F324A
:10206300228322202020204F5054494F4E532020BA
:102073002020202020202020202044697361626CCE
:102083006520525334383520202020202020202062
:10209300202020202020202020202020202020203D
:1020A300202020202020202020202020202020222B
:1020B3008322202020204F5054494F4E532020206C
:1020C30020202020202020202020556E6C6F636B61
:1020D30020202020202020202020202020202020FD
:1020E30020202020202020202020202020202020ED
:1020F300202020202020202020202020202022D229
:102103000F20123A20135ABB0D1DD2137B00758C7E
:1021130000758A00C28D308DFD2015062011030243
:102123000888D2140208880BEB3131F880338322FC
:102133003A0B061E391B6C5470380E010222BB0188
:10214300157B00758C00758A00C28D308DFD7589F5
:1021530022C2120208880BEB3160F8800483220349
:10216300222012032013057511F880037511FAE874
:10217300035480F5108510F0E80303035440251041
:10218300F5F0F510E8030303030354202510F5F0DD
:10219300F510E80303030303030354102510F5129A
:1021A300E8C4035480F5108510F0E8C40303035416
:1021B300402510F5F0F510E8C4030303030354208E
:1021C3002510F5F0F510E8C40303030303030354D8
:1021D300102510F513D2FF3010FDC210020888300D
:1021E3004303022235C2A4C2A5D2A675892178046D
:1021F300758A00758C00308DFDC28DD8F3C2A4D2D0
:10220300A5C2A67804758A00758C00308DFDC28D39
:10221300D8F3D2A4C2A5C2A67804758A00758C002F
:10222300308DFDC28DD8F3C2A4C2A5D2A6D2437508
:102233008922304203022993BB4C1B7BFF758C0020
:10224300758A00C28D308DFD1BBB00F1758922D2CA
:10225300127B00022102202403022296202503027E
:10226300230320260302236D2027030223D72028DC
:10227300030224412029030224AB202A030225154B
:10228300202B0302257F203F030225E7D2127B0088
:10229300022715D297C293C292C297758C00758A92
:1022A30000C28D308DFDD56A05D56B0280030223F4
:1022B30000756ADD891B8A1C79007A0075490075EF
:1022C300F002C3E51B75F00284F9E5F0B401037570
:1022D3004980C3E51C75F00284C32549FAE439F942
:1022E30030330C89328A33755200755300800A8962
:1022F300528A53753200753300D22480030225F9C4
:10230300D297D293C292C297758C00758A00C28D00
:10231300308DFDD56A02800302236A756ADD891B4D
:102323008A1C79007A0075490075F002C3E51B75B4
:10233300F00284F9E5F0B40103754980C3E51C7527
:10234300F00284C32549FAE439F930330C89348A1D
:1023530035755400755500800A89548A55753400C3
:10236300753500D22580030225F9D297C293D29204
:10237300C297758C00758A00C28D308DFDD56A02B7
:1023830080030223D4756ADD891B8A1C79007A00D5
:1023930075490075F002C3E51B75F00284F9E5F099
:1023A300B40103754980C3E51C75F00284C3254954
:1023B300FAE439F930330C89368A37755600755784
:1023C30000800A89568A57753600753700D22680F1
:1023D300030225F9D297D293D292C297758C0075D6
:1023E3008A00C28D308DFDD56A02800302243E75BA
:1023F3006ADD891B8A1C79007A0075490075F00231
:10240300C3E51B75F00284F9E5F0B4010375498057
:10241300C3E51C75F00284C32549FAE439F9303366
:102423000C89388A39755800755900800A89588A89
:1024330059753800753900D22780030225F9D297E0
:10244300C293C292C297758C00758A00C28D308D7B
:10245300FDD56A0280030224A8756ADD891B8A1CE4
:1024630079007A0075490075F002C3E51B75F00227
:1024730084F9E5F0B40103754980C3E51C75F002E6
:1024830084C32549FAE439F930330C893A8A3B7518
:102493005A00755B00800A895A8A5B753A00753B5E
:1024A30000D22880030225F9D297D293C292C29711
:1024B300758C00758A00C28D308DFDD56A0280034C
:1024C300022512756ADD891B8A1C79007A00754919
:1024D3000075F002C3E51B75F00284F9E5F0B40161
:1024E30003754980C3E51C75F00284C32549FAE4EA
:1024F30039F930330C893C8A3D755C00755D008089
:102503000A895C8A5D753C00753D00D2298003020F
:1025130025F9D297C293D292C297758C00758A001F
:10252300C28D308DFDD56A02800302257C756ADD7C
:10253300891B8A1C79007A0075490075F002C3E58E
:102543001B75F00284F9E5F0B40103754980C3E516
:102553001C75F00284C32549FAE439F930330C8938
:102563003E8A3F755E00755F00800A895E8A5F75EB
:102573003E00753F00D22A80030225F9D297D293F9
:10258300D292C297758C00758A00C28D308DFDD5AD
:102593006A0280030225E4756ADD891B8A1C7900BF
:1025A3007A0075490075F002C3E51B75F00284F9E2
:1025B300E5F0B40103754980C3E51C75F00284C3DB
:1025C3002549FAE439F930330C89408A41755000C2
:1025D300755100800A89508A51754000754100D2B7
:1025E3002B0225F9758C00758A00C28D308DFDD5BF
:1025F3006A02D23F80000BBB3D08302405782A02D3
:102603002102BB3E08302405782A022102BB3F0881
:10261300302505782A022102BB4008302505782A97
:10262300022102BB4108302605782A022102BB425F
:1026330008302605782A022102BB43083027057893
:102643002A022102BB4408302705782A022102BB53
:102653004508302805782A022102BB4608302805A0
:10266300782A022102BB4708302905782A02210271
:10267300BB4808302905782A022102BB4908302AC1
:1026830005782A022102BB4A08302A05782A02214A
:1026930002BB4B08302B05782A022102BB4C0830C1
:1026A3002B05782A02210200EBD1B2F80221028322
:1026B30022202020415454454E54494F4E2120207E
:1026C300202020202020462E2D43616C69627261F8
:1026D30074696F6E202020202020706C6561736503
:1026E30020776169742E2E2E202020202020202088
:1026F300202020202020202020202020202204838E
:102703002230313233343536373839414243444548
:102713004622C2AF75B7A575B7F1758F0390F9104F
:10272300E4F0758F0075B7A575B7F1758F0190F952
:1027330010E532F0758F00E475B7A575B7F1758FA5
:102743000190F911E533F0758F00E475B7A575B7FE
:10275300F1758F0190F912E534F0758F00E475B7C8
:10276300A575B7F1758F0190F913E535F0758F00F5
:10277300E475B7A575B7F1758F0190F914E536F0D7
:10278300758F00E475B7A575B7F1758F0190F915CD
:10279300E537F0758F00E475B7A575B7F1758F014F
:1027A30090F916E538F0758F00E475B7A575B7F1A4
:1027B300758F0190F917E539F0758F00E475B7A5AA
:1027C30075B7F1758F0190F918E53AF0758F00E44C
:1027D30075B7A575B7F1758F0190F919E53BF075DC
:1027E3008F00E475B7A575B7F1758F0190F91AE5F8
:1027F3003CF0758F00E475B7A575B7F1758F01903F
:10280300F91BE53DF0758F00E475B7A575B7F17554
:102813008F0190F91CE53EF0758F00E475B7A5753F
:10282300B7F1758F0190F91DE53FF0758F00E475E1
:10283300B7A575B7F1758F0190F91EE540F0758F57
:1028430000E475B7A575B7F1758F0190F91FE541E0
:10285300F0758F00E475B7A575B7F1758F0190F921
:1028630020E552F0758F00E475B7A575B7F1758F44
:102873000190F921E553F0758F00E475B7A575B79D
:10288300F1758F0190F922E554F0758F00E475B767
:10289300A575B7F1758F0190F923E555F0758F0094
:1028A300E475B7A575B7F1758F0190F924E556F076
:1028B300758F00E475B7A575B7F1758F0190F9258C
:1028C300E557F0758F00E475B7A575B7F1758F01FE
:1028D30090F926E558F0758F00E475B7A575B7F143
:1028E300758F0190F927E559F0758F00E475B7A549
:1028F30075B7F1758F0190F928E55AF0758F00E4EB
:1029030075B7A575B7F1758F0190F929E55BF0757A
:102913008F00E475B7A575B7F1758F0190F92AE5B6
:102923005CF0758F00E475B7A575B7F1758F0190ED
:10293300F92BE55DF0758F00E475B7A575B7F175F3
:102943008F0190F92CE55EF0758F00E475B7A575DE
:10295300B7F1758F0190F92DE55FF0758F00E47580
:10296300B7A575B7F1758F0190F92EE550F0758F06
:1029730000E475B7A575B7F1758F0190F92FE5518F
:10298300F0758F00E4D242D2127B00D2AF02210253
:10299300BB4C14D2A4C2A5C2A6C23E75B1FF7597A3
:1029A300A575970680FE000BEB31B2F80221028376
:1029B30022202056616C75657320736176656420EF
:1029C3002020202020202073756363657373667550
:1029D3006C6C792020202020202020202020202003
:1029E30020202020202020202020202020726573FA
:1029F30074617274696E672E2E2E20202022BB4CC8
:102A030008C2A4D2A5C2A680FE75A8C00BEB5117BD
:102A1300F802210283222020464154414C20455292
:102A2300524F5221202020202020706C6561736555
:102A330020636F6E746163743A2020202020696ED6
:102A4300666F40766563746F72666F72636520208C
:102A530020202E64652020202020202020202020DC
:032A63002020220E
:00000001FF
