:020000040000FA
:0300000002044BAC
:03000B0002024CA2
:0300230002007662
:03002B0002025777
:030033000202BB0B
:0300430002033481
:03004B0002042D7F
:0300530002043A6A
:1000730002026EC0E0C0D075A700758920204D0331
:1000830002009B90000F3099FDC299A3E06004F534
:100093009980F3C24D02024175F010900000740084
:1000A300F0D5F0028003A380F5900000E599F0C23B
:1000B30098758C1D758A00C28D209806308DFA02C2
:1000C300023E900001E599F0C298758C1D758A0077
:1000D300C28D209806308DFA02023E900002E59907
:1000E300F0C298758C1D758A00C28D209806308DDC
:1000F300FA02023E900003E599F0C298758C1D75D3
:100103008A00C28D209806308DFA02023E900004C8
:10011300E599F0C298758C1D758A00C28D209806EA
:10012300308DFA02023E900005E599F0C298758C75
:100133001D758A00C28D209806308DFA02023E900A
:100143000006E599F0C298758C1D758A00C28D2052
:100153009806308DFA02023E900007E599F0C298A6
:10016300758C1D758A00C28D209806308DFA0202A7
:100173003E900008E599F0C298758C1D758A00C2FF
:100183008D209806308DFA02023E900009E599F021
:10019300C298758C1D758A00C28D209806308DFA21
:1001A30002023E90000AE599F0C298758C1D758A8B
:1001B30000C28D209806308DFA02023E90000BE5B6
:1001C30099F0C298758C1D758A00C28D20980630EF
:1001D3008DFA02023E90000CE599F0C298758C1DD1
:1001E300758A00C28D209806308DFA02023E900077
:1001F3000DE599F0C298758C1D758A00C28D209803
:1002030006308DFA02023E90000EE599F0C2987511
:100213008C1D758A00C28D209806308DFA02023E2D
:1002230090000FE599F0C298758C1D758A00C28DF8
:10023300209806308DFA02023E800100D24C759858
:1002430070758922D0D0D0E032C0E0C0D0C28DD04A
:10025300D0D0E032C0E0C0D075C804203E08D54AF3
:1002630005754A0ED248D0D0D0E032C0E0C0D07578
:100273009500759400759104301638200511D53119
:100283000E753190E51FAC1FC205D22D75FE0820F7
:100293000119200B1E300A1BD50805750820B23240
:1002A300203208C2A4D2A5C2A68008C2A4C2A5D285
:1002B300A68000D0D0D0E032C0E0C0D0C2FF75A786
:1002C30020759A4475A700300F62C2A0758CFF7524
:1002D3008AFEC28D308DFD8511A375A720E5F744F5
:1002E3000FB40FF975A7000000000000000000859F
:1002F30012A375A720E5F7440FB40FF975A7000003
:10030300000000000000008513A375A720E5F74453
:100313000FB40FF975A7000000000000000000E50E
:10032300A1447FB47FF9D2A0C20FD210D0D0D0E0C5
:1003330032C0E0C0D075FDFFE5EDB4FF0620160620
:100343000204280203D120830D204508204905D249
:100353002E75FDF7812830965B2049F830950530DE
:10036300942A81283095FD3094FA758C00758A00A3
:10037300C28D308DFD3095EC3094E9D20DC20EC2A2
:100383004675FE0075319075470180423094FD300B
:1003930095FA758C00758A00C28D308DFD3094EC12
:1003A3003095E9D20EC20DC24675FE0075319075C7
:1003B30047018071758C00758A00C28D308DFD20D8
:1003C3009663204407D22D7547708002D246758C00
:1003D30000758A00C28D308DFDD547F27547FF75D4
:1003E300480F75EDFF80003096028039308DF87527
:1003F3008C00758A00C28DE547D547EB7547FFD55D
:1004030048E5300520D2447B00C21375EDBF754724
:1004130005758921758C00758A00C28D308DFDD5D7
:1004230047F2758922D0D0D0E032C0E0C0D0D231BB
:10043300C2EBD0D0D0E032C0E0C0D0C2EDA9BEAA9A
:10044300BDD204D0D0D0E032C2AF7597DE7597AD80
:10045300D2AF75816075A90075E10375E20075E39C
:10046300C075D40F75F1F975A45175F2FF75A58F99
:1004730075EE7075A72075F3FB75A67B75A70075E0
:10048300A72075F4FF759C0C75A70075D14075A75F
:100493003075918075938075920175940175840010
:1004A300758508758900758A0875888875A700752C
:1004B3009870758E027588D2758922758DE475C81A
:1004C3000475CB0075CA0075910475A8E075E60A3A
:1004D30075A14775A20175F80375A720759A007574
:1004E300A70075E8A075DF1FC2EBC2ED75D1807858
:1004F3000179007A007B007C007D087E007FFF7518
:100503000820750A00750B00750C00750D00750E3B
:1005130000750F0275100075110075120075130038
:100523007515007516007517007518007519007597
:100533001A00751D017531907532007533007534DD
:10054300007535007536007537007538007539004C
:10055300753A00753B00753C00753D00753E0075AE
:100563003F007540007541007542007543007544B6
:1005730000754500754600754700754800754900CC
:10058300754A01754B01754C007550007551007526
:100593005200755300755400755500755600755714
:1005A30000755800755900755A00755B00755C003D
:1005B300755D00755E00755F00756AFF756B037589
:1005C3006C00756D00756E00756F00757000757148
:1005D300007572007573007574007575007576008B
:1005E300757700757800757900757A00C200C2933B
:1005F300C292C2917F06208D0280FBC28DDFF7C2BB
:1006030001C202C203C204C20AC20BD297C2A1C270
:1006130005C207C206C2B2C208C209C224C225C2A9
:1006230026C227C228C229C22AC22BC241C2A4C2DF
:10063300A5D2A6C212C22EC210C20FC213D2A0C22A
:1006430017C216C218C214C215D21AC219C21DC2C9
:100653000EC20DC2A1C212C22CC22D75BE0075BD41
:1006630000C231C235C23EC240C242C243C244C2CA
:1006730045C247C249C24BC24AC24D75A730AD8578
:10068300AE8475A700C211C21FC220D21C75892176
:10069300758C00758A00C28D308DFD758922D2A1BB
:1006A300208307D23EC23F021268E490F00093B465
:1006B300040DD249D2ACC2A3751D04D24BD22DE492
:1006C30090F00193C3B409004005754B018002F516
:1006D3004B75FE08E490F91093F532E490F9119309
:1006E300F533E490F91293F534E490F91393F53567
:1006F300E490F91493F536E490F91593F537E49003
:10070300F91693F538E490F91793F539E490F9184D
:1007130093F53AE490F91993F53BE490F91A93F5BC
:100723003CE490F91B93F53DE490F91C93F53EE40A
:1007330090F91D93F53FE490F91E93F540E490F989
:100743001F93F541E490F92093F552E490F9219336
:10075300F553E490F92293F554E490F92393F55576
:10076300E490F92493F556E490F92593F557E49032
:10077300F92693F558E490F92793F559E490F9286D
:1007830093F55AE490F92993F55BE490F92A93F5EC
:100793005CE490F92B93F55DE490F92C93F55EE41A
:1007A30090F92D93F55FE490F92E93F550E490F9C9
:1007B3002F93F551E490F20093B40117D224C2258C
:1007C300C226C227C228C229C22AC22B7C008C1F80
:1007D300021268B40217C224D225C226C227C22835
:1007E300C229C22AC22B7C018C1F021268B40317D0
:1007F300C224C225D226C227C228C229C22AC22B9A
:100803007C028C1F021268B40417C224C225C226BC
:10081300D227C228C229C22AC22B7C038C1F0212F0
:1008230068B40517C224C225C226C227D228C2290A
:10083300C22AC22B7C048C1F021268B40617C2247E
:10084300C225C226C227C228D229C22AC22B7C05AE
:100853008C1F021268B40717C224C225C226C227FE
:10086300C228C229D22AC22B7C068C1F021268B46A
:100873000814C224C225C226C227C228C229C22AFA
:10088300D22B7C078C1F021268304C04C24C8003AD
:10089300020F9C757F01900000E57FB4040DE54BCA
:1008A300122975F5F0E0B5F028800811C1F5F0E0E4
:1008B300B5F01EA3057FE57FB411DE021902832282
:1008C30044563A202035303000000000000000007C
:1008D30022757F01900000E57FB4040DE54B1229DA
:1008E30075F5F0E0B5F028800811FFF5F0E0B5F0FC
:1008F3001EA3057FE57FB411DE02196683224456E9
:100903003A20203130303000000000000000227512
:100913007F01900000E57FB4040DE54B122975F5C6
:10092300F0E0B5F0288008313DF5F0E0B5F01EA306
:10093300057FE57FB411DE0219CA832244563A20AB
:1009430020323030300000000000000022757F01AB
:10095300900000E57FB4040DE54B122975F5F0E036
:10096300B5F0288008317BF5F0E0B5F01EA3057FD4
:10097300E57FB411DE021A2E832244563A20203535
:100983003030300000000000000022757F0190002D
:1009930000E57FB4040DE54B122975F5F0E0B5F0E1
:1009A30028800831B9F5F0E0B5F01EA3057FE57F97
:1009B300B411DE021A92832244563A202031303099
:1009C300303000000000000022757F01900000E538
:1009D3007FB4040DE54B122975F5F0E0B5F02880DE
:1009E3000831F7F5F0E0B5F01EA3057FE57FB411FC
:1009F300DE021AF6832244563A2020323030303059
:100A030000000000000022757F01900000E57FB424
:100A1300040DE54B122975F5F0E0B5F02880085177
:100A230035F5F0E0B5F01EA3057FE57FB411DE02D6
:100A33001B5A832244563A20203430303030000091
:100A43000000000022757F01900000E57FB4040DD3
:100A5300E54B122975F5F0E0B5F02880085173F5E0
:100A6300F0E0B5F01EA3057FE57FB411DE020DBFF4
:100A7300832244563A2020564F4C543F0000000036
:100A8300000022757F01900000E57FB4040DE54B63
:100A9300122975F5F0E0B5F02A800851B3F5F0E0BE
:100AA300B5F020A3057FE57FB411DED22E02088CBA
:100AB300832244563A2020415A00000000000000DF
:100AC300000022757F01900000E57FB4040DE54B23
:100AD300122975F5F0E0B5F030800851F9F5F0E032
:100AE300B5F026A3057FE57FB411DE75B1FF7597D9
:100AF300A575970180FE832244563A202052535411
:100B0300000000000000000022757F01900000E556
:100B13007FB4040DE54B122975F5F0E0B5F028809C
:100B2300087137F5F0E0B5F01EA3057FE57FB4113A
:100B3300DE020CC7832244563A20203F0000000007
:100B430000000000000022757F01900000E57FB4E3
:100B5300040DE54B122975F5F0E0B5F02880087116
:100B630075F5F0E0B5F01EA3057FE57FB411DE0255
:100B73000EF4832244563A20205357563F00000078
:100B83000000000022757F01900000E57FB4040D92
:100B9300E54B122975F5F0E0B5F028800871B3F53F
:100BA300F0E0B5F01EA3057FE57FB411DE020F234D
:100BB300832244563A20205345523F000000000050
:100BC300000022757F01900000E57FB4040DE54B22
:100BD300122975F5F0E0B5F028800871F1F5F0E021
:100BE300B5F01EA3057FE57FB411DE020E4E83220E
:100BF30044563A202049444E3F00000000000000C4
:100C030022757F01900000E57FB4040DE54B1229A6
:100C130075F5F0E0B5F0228008912FF5F0E0B5F01E
:100C230018A3057FE57FB40BDE020C3F83224456F5
:100C33003A205F403D5345522202088C90000FE05A
:100C4300B400F6C2AF75B7A575B7F1758F0390E021
:100C530000E4F0758F0075B7A575B7F1758F019036
:100C6300000AE090E000F0758F00E475B7A575B752
:100C7300F1758F0190000BE090E001F0758F00E4B7
:100C830075B7A575B7F1758F0190000CE090E00280
:100C9300F0758F00E475B7A575B7F1758F019000F6
:100CA3000DE090E003F0758F00E475B7A575B7F11B
:100CB300758F0190000EE090E004F0758F00E4D290
:100CC300AF020F9C9000107444F0A37456F0A37409
:100CD3003AF0A3E54B122975F0A3743DF0A3740019
:100CE300F0A37400F0A37400F0A37400F0A37400E5
:100CF300F0A37400F0ECB400149000157435F0A365
:100D03007430F0A37430F0A37400F0E190B40110D8
:100D13009000157431F0A3744BF0A37400F0E190CC
:100D2300B402109000157432F0A3744BF0A3740056
:100D3300F0E190B403109000157435F0A3744BF0F8
:100D4300A37400F0E190B404149000157431F0A37F
:100D53007430F0A3744BF0A37400F0E190B4051465
:100D63009000157432F0A37430F0A3744BF0A374A5
:100D730000F0E1909000157434F0A37430F0A37484
:100D83004BF0A37400F0E19075F001900010E5F0D2
:100D9300B40407E54B1229758008B1ABB40003F026
:100DA300E190F0A305F080E6832244563A203D41CA
:100DB30055544F5A45524F3D4F4B002275F0019009
:100DC3000010E5F0B40407E54B1229758063B406FF
:100DD30026303304742B8059C3E50A7012E50B7077
:100DE3000EE50C700AE50D7006E50E7002800474C2
:100DF3002D803E7420803AB40707E50A12297580D6
:100E030030B40807E50B1229758026B40A07E50CF0
:100E1300122975801CB40B07E50D1229758012B4D5
:100E23000C07E50E1229758008D13AB40003F0E1EE
:100E330090F0A305F0808B832244563A203D2B305B
:100E4300302E30303056000000002275F001900043
:100E530010E5F0B4470AE490E00093900056803C1C
:100E6300B4480AE490E00193900057802FB4490AF4
:100E7300E490E002939000588022B44A0AE490E0A0
:100E830003939000598015B44B0AE490E0049390C7
:100E9300005A8008D1A5B40003F0E190F0A305F057
:100EA30080AF832256465420566563746F72666F13
:100EB3007263652D546563686E6F6C6F67696573E4
:100EC30020445634304B20536F66747761726576D5
:100ED300657273696F6E3A56312E303720536572DF
:100EE30069616C6E756D6265723A787878787800AE
:100EF3002275F001900010E5F0F10AB40003F0E16F
:100F030090F0A305F080F08322536F6674776172CB
:100F13006576657273696F6E3A56312E30370022EB
:100F230075F001900010E5F0B40E0AE490E0009330
:100F330090001D803CB40F0AE490E0019390001EE2
:100F4300802FB4100AE490E0029390001F8022B433
:100F5300110AE490E003939000208015B4120AE490
:100F630090E004939000218008F17AB40003F080AC
:100F73001CF0A305F080AF832253657269616C6E28
:100F8300756D6265723A78787878780022D2A3D248
:100F93004DD299204DFDC2A30030400302128D3083
:100FA3000103021C34302E028019200B05200A1382
:100FB3008008C2A4D2A5C2A68009203E06C2A4C24C
:100FC300A5D2A6203E0C301606304103204803026A
:100FD300124D75E68675BB0F75DF3F75B24075C65A
:100FE3000475C56575C40275C371D2EC758CFF7544
:100FF3008A00C28D308DFDA9BEAABD30310CD23A14
:10100300C23BC23CC23DC23101BD75E68675BB0F12
:1010130075DF3F75B24075C60775C5D075C40575D4
:10102300C3DCD2EC758CFF758A00C28D308DFDA9AF
:10103300BEAABD30310CC23AD23BC23CC23DC23122
:10104300807875E68675BB0F75DF3F75B24075C650
:101053000B75C53B75C40975C347D2EC758CFF7519
:101063008A00C28D308DFDA9BEAABD30310CC23AB3
:10107300C23BD23CC23DC231804075E68675BB0F90
:1010830075DF3F75B24075C60E75C5A675C4077585
:10109300C3D0D2EC758CFF758A00C28D308DFDA94B
:1010A300BEAABD30310CC23AC23BC23CD23DC231B2
:1010B3008008C23AC23BC23CC23D75E68675BB009E
:1010C30075DF3F75B24075C60075C50075C40E75F2
:1010D300C3D8D2EC30ECFD758CFF758A00C28D301D
:1010E3008DFDA9BEAABD303106D20AC2318000757A
:1010F300BB0075C60075C50075C40F75C3A0D2ECDF
:1011030030ECFD758CFF758A00C28D308DFDA9BE54
:10111300AABD303108D20BD20AC231800100C3B953
:1011230001005008C3BA010050028006D233C23412
:10113300806275BB0175C60075C50075C40E75C3A5
:10114300D8D2EC30ECFD758CFF758A00C28D308DE2
:10115300FDA9BEAABDC233D234303106D20AC23190
:10116300800075BB0179007A0075C60075C50075EE
:10117300C40F75C3A0D2EC30ECFD758CFF758A00EB
:10118300C28D308DFDA9BEAABD303108D20AD20B63
:10119300C2318000C248300502800302124D891516
:1011A3008A1689178A18751900751A00891B8A1CF3
:1011B30075F002E518B40007E517B40006802115A1
:1011C30018800715177518FF8000D5F0E675F00233
:1011D300E51AB4FF070519751A0080D7051A80D3DD
:1011E300EA2516FAE93515F9EA251AFAE93519F95E
:1011F300750A00750B00750C00750D00750E00EA7D
:10120300B4000BE9B400028041197AFF80011AE5AA
:101213000EB40922750E00E50DB4091E750D00E527
:101223000CB4091A750C00E50BB40916750B00E52F
:101233000AB409128014050E80C5050D80C1050C82
:1012430080BD050B80B9050A80B5302C1820440CED
:10125300204509204906200E0E200D1520050630D5
:101263002D030218D78023BC06047C00800D0C805C
:101273000ABC00047C0680031C8000C205C22DC288
:101283000EC20DD2127B00022366301203022366C4
:10129300201303022366303E030224463040030238
:1012A30013AD30160F304403022005300003022C27
:1012B3007502144D30350302137EC2A4C2A5D2A613
:1012C300BB4C207B15758921758C00758A00C28DF6
:1012D300308DFD1BBB00F1D2357589227B00D21204
:1012E30002088CBB3F0A90E000E493F80B022366EC
:1012F300BB400AE490E00193F80B022366BB410A6A
:10130300E490E00293F80B022366BB420AE490E008
:101313000393F80B022366BB430AE490E00493F8BB
:101323000B0223660BEB712FF80223668322202026
:1013330020202020202020202020202020202020AA
:10134300202020202020465241435455524520203E
:10135300202020202020202020544543484E4F4C5D
:101363004F475920202020202020534E3A20202070
:10137300202020202076312E303722C2A4C2A5D2CD
:10138300A6D216D2400213ADBB4C68D216C2AF7BB5
:1013930055758921758C00758A00C28D209602804F
:1013A30039308DF81BBB00ECD240C2A1758C00759F
:1013B3008A00C28D308DFDD2A1C2A4C2A5C2A630BF
:1013C30096FD758C00758A00C28D308DFD75EE70AB
:1013D300D297C2AF2049032096FDD2AFC297D24124
:1013E3007589227B0075E68AC240C20EC20DC21304
:1013F30002088C0BEB71FEF8022366832220202067
:1014030020202020202020202020202020202020D9
:1014130020205072657373202041444A5553542051
:1014230020202020202020746F206163746976615E
:101433007465202020202020202020202020202010
:1014430020202020202020202022C22C201B2ABB49
:1014530014067B00D21B8021202E0F203A0F203B45
:101463000F203C0F203D0F0215400215DB02155FD4
:1014730002157E02159D0215BC20223CBB14067B7F
:1014830000D2228033200A0C204506204921021570
:10149300FA021657200B0C2045062049180216386D
:1014A30002169520450620490902161902167602EE
:1014B30016B40216E00216FF202339BB14067B0084
:1014C300D2238030BC00030217DFBC01030217FEE6
:1014D300BC020302181DBC030302183CBC04030234
:1014E300185BBC050302187ABC0603021899BC07F3
:1014F300030218B8BB10047B008012202E063005AF
:1015030009201C0302171E02175402173930010366
:10151300021C347BCC758C00758A00308DFDC28D26
:10152300DBF3D212C21BC222C223D22C202E03020F
:10153300088CD50F05750F02D20102088C0BEBB195
:1015430048F8022366832220202020202020202008
:101553002020202020202020202020220BEBB167F8
:10156300F802236683224C502D46494C54455220A1
:1015730031303030487A20202020220BEBB186F81E
:1015830002236683224C502D46494C544552202059
:10159300333030487A20202020220BEBB1A5F8020B
:1015A300236683224C502D46494C5445522020201B
:1015B3003530487A20202020220BEBB1C4F80223D7
:1015C3006683224C502D46494C54455220202020FE
:1015D3004F464620202020220BEBB1E3F80223667E
:1015E300832220202A2A4155544F5A45524F2A2AF2
:1015F300202020202020220BEBD102F80223668337
:1016030022202020202020202020202020202020D5
:101613002020202020220BEBD121F80223668322F5
:101623002020204F56455252414E4745212020202D
:1016330020202020220BEBD140F8022366832220B6
:10164300204F5554505554203E392E3556202020D6
:10165300202020220BEBD15FF80223668322202077
:1016630020202A4C4F434B45442A20202020202071
:101673002020220BEBD17EF802236683222A4C4FD3
:10168300434B2A4F56455252414E47452120202075
:1016930020220BEBD19DF802236683224C4F434B50
:1016A3002A4F55545055543E392E3556202020206C
:1016B300220BEBB41009E54B122975F802236600DF
:1016C300D1C9F8022366832252656D6F7465205277
:1016D300533438352049442D20202020220BEBD1D0
:1016E300E8F802236683225253343835204F564597
:1016F3005252414E47452120202020220BEBF10777
:10170300F802236683225253343835204F55545000
:101713002E3E392E355620202020220BEBF126F8C1
:101723000223668322202020202020202020202026
:101733002020202020220BEBF141F8022366832294
:101743002020507265737320746F2073657420209A
:10175300220BEBB4092B2034057820022366E50A1B
:10176300B40019E50BB40014E50CB4000FE50DB497
:10177300000AE50EB400057820022366782D0223C3
:1017830066B40A0DE50AB400047420802AF1D180FE
:1017930026B40B06E50BF1D1801DB40D06E50CF163
:1017A300D18014B40E06E50DF1D1800BB40F06E51C
:1017B3000EF1D18002F1BEF802236683224F555405
:1017C3005055543A202020202E20202056220483D6
:1017D3002230313233343536373839220BEBF1E7E7
:1017E300F8022366832220204741494E3A202020D5
:1017F30035303020202020202020220BEB1106F84A
:10180300022366832220204741494E3A202020317B
:101813006B2020202020202020220BEB1125F80212
:101823002366832220204741494E3A202020326BF1
:101833002020202020202020220BEB1144F802231B
:1018430066832220204741494E3A202020356B20D1
:1018530020202020202020220BEB1163F802236696
:10186300832220204741494E3A20202031306B20EB
:10187300202020202020220BEB1182F802236683F4
:101883002220204741494E3A20202032306B20202D
:101893002020202020220BEB11A1F80223668322B3
:1018A30020204741494E3A20202034306B2020200D
:1018B30020202020220BEB11C0F802236683222074
:1018C300204741494E3A20202036306B20202020EB
:1018D30020202022BC00028026BC01022166BC021B
:1018E3000221CABC0302412EBC04024192BC050280
:1018F30041F6BC0602615ABC070261BE021C1DD23E
:1019030097C293C292C291C297D2057C00C3EE855F
:1019130053F095F0FAED8552F095F0F9C3EA85336B
:10192300F025F0FAE98532F035F0F975A7308A84AD
:10193300898575A700C2AF75B7A575B7F1758F0314
:1019430090F200E4F0758F0075B7A575B7F1758F48
:101953000190F2007401F0758F00D2AFE4751F009F
:10196300021C1DD297D293C292C291C297D2057C18
:1019730001C3EE8555F095F0FAED8554F095F0F935
:10198300C3EA8535F025F0FAE98534F035F0F975C9
:10199300A7308A84898575A700C2AF75B7A575B7C7
:1019A300F1758F0390F200E4F0758F0075B7A5759C
:1019B300B7F1758F0190F2007402F0758F00D2AF0A
:1019C300E4751F01021C1DD297C293D292C291C229
:1019D30097D2057C02C3EE8557F095F0FAED855654
:1019E300F095F0F9C3EA8537F025F0FAE98536F08A
:1019F30035F0F975A7308A84898575A700C2AF755C
:101A0300B7A575B7F1758F0390F200E4F0758F00F9
:101A130075B7A575B7F1758F0190F2007403F07572
:101A23008F00D2AFE4751F02021C1DD297D293D24E
:101A330092C291C297D2057C03C3EE8559F095F00B
:101A4300FAED8558F095F0F9C3EA8539F025F0FAF7
:101A5300E98538F035F0F975A7308A84898575A74B
:101A630000C2AF75B7A575B7F1758F0390F200E4A7
:101A7300F0758F0075B7A575B7F1758F0190F200FA
:101A83007404F0758F00D2AFE4751F03021C1DD2DE
:101A930097C293C292D291C297D2057C04C3EE85BA
:101AA3005BF095F0FAED855AF095F0F9C3EA853BC2
:101AB300F025F0FAE9853AF035F0F975A7308A8414
:101AC300898575A700C2AF75B7A575B7F1758F0383
:101AD30090F200E4F0758F0075B7A575B7F1758FB7
:101AE3000190F2007405F0758F00D2AFE4751F0406
:101AF300021C1DD297D293C292D291C297D2057C77
:101B030005C3EE855DF095F0FAED855CF095F0F98F
:101B1300C3EA853DF025F0FAE9853CF035F0F97527
:101B2300A7308A84898575A700C2AF75B7A575B735
:101B3300F1758F0390F200E4F0758F0075B7A5750A
:101B4300B7F1758F0190F2007406F0758F00D2AF74
:101B5300E4751F05021C1DD297C293D292D291C283
:101B630097D2057C06C3EE855FF095F0FAED855EAE
:101B7300F095F0F9C3EA853FF025F0FAE9853EF0E8
:101B830035F0F975A7308A84898575A700C2AF75CA
:101B9300B7A575B7F1758F0390F200E4F0758F0068
:101BA30075B7A575B7F1758F0190F2007407F075DD
:101BB3008F00D2AFE4751F06021C1DD297D293D2B9
:101BC30092D291C297D205C3EE8551F095F0FAED0A
:101BD3008550F095F0F9C3EA8541F025F0FAE985DF
:101BE30040F035F0F975A7308A84898575A700C25E
:101BF300AF75B7A575B7F1758F0390F200E4F07573
:101C03008F0075B7A575B7F1758F0190F200740851
:101C1300F0758F00D2AFE4751F07C2B2C20BC20AC0
:101C23007FFF308DFDC28DDFF9C22D75FE080208DE
:101C33008C756D0075E68A75DF5F780FD20C75BB06
:101C430000D2EC3004FDC204758C99758A00C28DF4
:101C5300308DFDA9BEAABDB90005BA0002806A7520
:101C6300BB00D2EC3004FDC204758C99758A00C2A6
:101C73008D308DFDA9BEAABDB90005BA0002A134FD
:101C8300D201D20275A730A985AA8475A700BAFF2D
:101C930011C3B90F004004D2088018C208097A00A2
:101CA3008003C2080A75A7308A84EAFE8985E9FDA4
:101CB30075A7007F20308DFDC28DDFF9300808D273
:101CC3000BD205790FC1A1809675BB00D2EC30040D
:101CD300FDC204758C99758A00C28D308DFDA9BE35
:101CE300AABDC3BA05005049D201D20375A730A9D2
:101CF30085AA8475A700BA0011C3B900005004D2A5
:101D0300098018C209197AFF8003C2091A75A7301E
:101D13008A84EAFE8985E9FD75A7007F20308DFD61
:101D2300C28DDFF9300908D20BD205790FC1A1802A
:101D330098D2EC7F883004FDC204758CFF758A004D
:101D4300C28D308DFDC28DDFF1A9BEAABDE56DB494
:101D53000008896E8A6F056D802AB4010889708A2C
:101D630071056D801FB4020889728A73056D801432
:101D7300B4030889748A75056D8009756D048976C5
:101D83008A778000757800757900757A00E56F258C
:101D930071F57AE56E3570F57974003400F578E500
:101DA3007A2573F57AE5793572F57974003578F526
:101DB30078E57A2575F57AE5793574F57974003522
:101DC30078F578E57A2577F57AE5793576F57974D6
:101DD300003578F578E578E579E57A79007A007564
:101DE3006C05E57AB4000CE579B4000BE578B40032
:101DF3000D8027157A80111579757AFF800A157879
:101E03007579FF757AFF8000D56CD7756C05EAB4D8
:101E1300FF05097A0080CB0A80C8E56DB404057517
:101E23006D008003021D3420473CC3BA0F004002FB
:101E3300803275A730A985AA8475A700BA0011C39B
:101E4300B900005004D2098055C209197AFF8003F2
:101E5300C2091A75A7308A84EAFE8985E9FD75A748
:101E630000021D34D247C3BA0100403275A730A91E
:101E730085AA8475A700BAFF11C3B90F004004D225
:101E830009801BC209097A008003C2090A75A730B9
:101E93008A84EAFE8985E9FD75A700021D34C247DD
:101EA300C20175EE70C202C203C209C208C20CC2EB
:101EB3002E7FF2208D0280FBC28DDFF7C2EBC20BB7
:101EC300C20A75BE0075BD00C2317A00D212C21BB0
:101ED300C222C223C2A4C2A5D2A6D20590F200E4B4
:101EE30093B40120EE8533F095F0FEED8532F09545
:101EF300F0FDC3EE8553F025F0FEED8552F035F08D
:101F0300FD021FFCB40220EE8535F095F0FEED8551
:101F130034F095F0FDC3EE8555F025F0FEED8554C4
:101F2300F035F0FD021FFCB40320EE8537F095F089
:101F3300FEED8536F095F0FDC3EE8557F025F0FEF6
:101F4300ED8556F035F0FD021FFCB40420EE853913
:101F5300F095F0FEED8538F095F0FDC3EE8559F070
:101F630025F0FEED8558F035F0FD021FFCB4052089
:101F7300EE853BF095F0FEED853AF095F0FDC3EE6E
:101F8300855BF025F0FEED855AF035F0FD021FFC70
:101F9300B40620EE853DF095F0FEED853CF095F01E
:101FA300FDC3EE855DF025F0FEED855CF035F0FDBB
:101FB300021FFCB40720EE853FF095F0FEED853E51
:101FC300F095F0FDC3EE855FF025F0FEED855EF044
:101FD30035F0FD021FFCB40820EE8541F095F0FEBC
:101FE300ED8540F095F0FDC3EE8551F025F0FEED53
:101FF3008550F035F0FD021FFC20490302236602E1
:102003000D8BBB4C02800302219C7B02758C0075F7
:102013008A00C28D308DFDDBF37B00D22C200E08AD
:10202300200D3420465F2187C20E204A1FE51DC3C1
:10203300B40505751D052184051DE51DC3B4040004
:1020430040028004C24B2184D24B2184E54BB40867
:10205300022184054B2184C20D204A1EE51DB401D3
:1020630005751D012184151DE51DC3B4040040023F
:102073008004C24B2184D24B2184E54BB40102215D
:1020830084154B2184C246C2137B00E51DB40115A0
:10209300204509D24575EE40C2442184C24575EE00
:1020A30070C2442184E51DB40206C244D240218497
:1020B300E51DB40304C2442184E51DB40402800376
:1020C30002214DC244204942D249D2ACC2A3C2AF7D
:1020D30075B7A575B7F1758F0390F000E4F0758FB0
:1020E3000075B7A575B7F1758F0190F000E51DF088
:1020F300758F0075B7A575B7F1758F0190F001E580
:102103004BF0758F00D2AFE48077C249C2AF75B789
:10211300A575B7F1758F0390F000E4F0758F007526
:10212300B7A575B7F1758F0190F0007400F0758F46
:102133000075B7A575B7F1758F0190F001E54BF008
:10214300758F00D2AFE4C2AC8037E51DB4053220F1
:102153004A04D24A802BC24AC2AF75B7A575B7F1FC
:10216300758F0390F000E4F0758F0075B7A575B710
:10217300F1758F0190F001E54BF0758F00D2AF80C0
:1021830000751E15758C00758A00C28D308DFDD5C6
:102193001EF2D212C22D02088C0BBB1517E51DB41B
:1021A3000105787E022366B40405787E02236678EF
:1021B30020022366BB291AE51DB40205787E02239B
:1021C30066B40508204A05787E0223667820022338
:1021D30066BB350D304A05787E02236678200223DC
:1021E30066BB370F304B0C204909E54B122975F8B4
:1021F300022366BB3D0FE51DB40305787E0223660B
:102203007820022366EB204509204B0C512AF80263
:1022130023667117F80223662049065179F80223D1
:102223006651C8F80223668322202020204F505491
:10223300494F4E53202020202020202020202020E2
:10224300204C6F636B202020202020202020202082
:1022530020202020205374616E6462792020202086
:1022630020202020202020202043616E63656C20E5
:102273002020312F32228322202020204F50544906
:102283004F4E5320202020202020202020202020BB
:10229300456E61626C65205253343835202020200E
:1022A3002020202052533438352D4944205B205DB3
:1022B300202020202020202020202020202020201B
:1022C30020322F32228322202020204F5054494F86
:1022D3004E5320202020202020202020202044692D
:1022E3007361626C652052533438352020202020DE
:1022F30020202020202020202020202020202020DB
:1023030020202020202020202020202020202020CA
:10231300202020228322202020204F5054494F4E3A
:102323005320202020202020202020202020556EF4
:102333006C6F636B20202020202020202020202071
:10234300202020202020202020202020202020208A
:10235300202020202020202020202020202020207A
:10236300202022D20F20123A20135ABB0D1DD21364
:102373007B00758C00758A00C28D308DFD2015069B
:1023830020110302088CD21402088C0BEB7195F810
:10239300803383223A0B061E391B6C5470380E01AE
:1023A3000222BB01157B00758C00758A00C28D303B
:1023B3008DFD758922C21202088C0BEB71C4F88063
:1023C30004832203222012032013057511F88003CE
:1023D3007511FAE8035480F5108510F0E803030340
:1023E30054402510F5F0F510E803030303035420CC
:1023F3002510F5F0F510E80303030303030354105A
:102403002510F512E8C4035480F5108510F0E8C4D4
:1024130003030354402510F5F0F510E8C403030348
:10242300030354202510F5F0F510E8C40303030358
:1024330003030354102510F513D2FF3010FDC2100F
:1024430002088C304303022499C2A4C2A5D2A67504
:1024530089217804758A00758C00308DFDC28DD872
:10246300F3C2A4D2A5C2A67804758A00758C003085
:102473008DFDC28DD8F3D2A4C2A5C2A67804758AF5
:1024830000758C00308DFDC28DD8F3C2A4C2A5D2D5
:10249300A6D243758922304203022C07BB4C1B7B17
:1024A300FF758C00758A00C28D308DFD1BBB00F15A
:1024B300758922D2127B000223662024030224FAA8
:1024C3002025030225692026030225D520270302A0
:1024D30026412028030226AD202903022719202A9A
:1024E30003022785202B030227F1203F0302285BE9
:1024F300D2127B00022989D297C293C292C291C29F
:1025030097758C00758A00C28D308DFDD56A05D50F
:102513006B028003022566756ADD891B8A1C7900BC
:102523007A0075490075F002C3E51B75F00284F962
:10253300E5F0B40103754980C3E51C75F00284C35B
:102543002549FAE439F930330C89328A337552005C
:10255300755300800A89528A53753200753300D24D
:1025630024800302286DD297D293C292C291C2975C
:10257300758C00758A00C28D308DFDD56A0280038B
:102583000225D2756ADD891B8A1C79007A00754998
:102593000075F002C3E51B75F00284F9E5F0B401A0
:1025A30003754980C3E51C75F00284C32549FAE429
:1025B30039F930330C89348A3575540075550080E8
:1025C3000A89548A55753400753500D22580030273
:1025D300286DD297C293D292C291C297758C00751F
:1025E3008A00C28D308DFDD56A02800302263E75B6
:1025F3006ADD891B8A1C79007A0075490075F0022F
:10260300C3E51B75F00284F9E5F0B4010375498055
:10261300C3E51C75F00284C32549FAE439F9303364
:102623000C89368A37755600755700800A89568A91
:1026330057753600753700D226800302286DD2976E
:10264300D293D292C291C297758C00758A00C28DC3
:10265300308DFDD56A0280030226AA756ADD891BC7
:102663008A1C79007A0075490075F002C3E51B7571
:10267300F00284F9E5F0B40103754980C3E51C75E4
:10268300F00284C32549FAE439F930330C89388AD6
:1026930039755800755900800A89588A5975380068
:1026A300753900D227800302286DD297C293C29254
:1026B300D291C297758C00758A00C28D308DFDD57D
:1026C3006A028003022716756ADD891B8A1C79005A
:1026D3007A0075490075F002C3E51B75F00284F9B1
:1026E300E5F0B40103754980C3E51C75F00284C3AA
:1026F3002549FAE439F930330C893A8A3B755A0093
:10270300755B00800A895A8A5B753A00753B00D273
:1027130028800302286DD297D293C292D291C29796
:10272300758C00758A00C28D308DFDD56A028003D9
:10273300022782756ADD891B8A1C79007A00754934
:102743000075F002C3E51B75F00284F9E5F0B401EE
:1027530003754980C3E51C75F00284C32549FAE477
:1027630039F930330C893C8A3D755C00755D008016
:102773000A895C8A5D753C00753D00D2298003029D
:10278300286DD297C293D292D291C297758C00755D
:102793008A00C28D308DFDD56A0280030227EE7553
:1027A3006ADD891B8A1C79007A0075490075F0027D
:1027B300C3E51B75F00284F9E5F0B40103754980A4
:1027C300C3E51C75F00284C32549FAE439F93033B3
:1027D3000C893E8A3F755E00755F00800A895E8AB8
:1027E3005F753E00753F00D22A800302286DD297A1
:1027F300D293D292D291C297758C00758A00C28D02
:10280300308DFDD56A028003022858756ADD891B65
:102813008A1C79007A0075490075F002C3E51B75BF
:10282300F00284F9E5F0B40103754980C3E51C7532
:10283300F00284C32549FAE439F930330C89408A1C
:1028430041755000755100800A89508A51754000C6
:10285300754100D22B02286D758C00758A00C28DDC
:10286300308DFDD56A02D23F80000BBB3D0830247A
:1028730005782A022366BB3E08302405782A022302
:1028830066BB3F08302505782A022366BB40083023
:102893002505782A022366BB4108302605782A02DB
:1028A3002366BB4208302605782A022366BB430809
:1028B300302705782A022366BB4408302705782A87
:1028C300022366BB4508302805782A022366BB46E7
:1028D30008302805782A022366BB47083029057883
:1028E3002A022366BB4808302905782A022366BBDF
:1028F3004908302A05782A022366BB4A08302A058C
:10290300782A022366BB4B08302B05782A022366FC
:10291300BB4C08302B05782A02236600EB3126F8DE
:102923000223668322202020415454454E54494FAC
:102933004E212020202020202020462E2D43616C74
:102943006962726174696F6E202020202020706C90
:102953006561736520776169742E2E2E20202020F7
:102963002020202020202020202020202020202064
:10297300202204832230313233343536373839411B
:10298300424344454622C2AF75B7A575B7F1758F6B
:102993000390F910E4F0758F0075B7A575B7F1755D
:1029A3008F0190F910E532F0758F00E475B7A575C6
:1029B300B7F1758F0190F911E533F0758F00E47568
:1029C300B7A575B7F1758F0190F912E534F0758FDE
:1029D30000E475B7A575B7F1758F0190F913E53567
:1029E300F0758F00E475B7A575B7F1758F0190F990
:1029F30014E536F0758F00E475B7A575B7F1758FDB
:102A03000190F915E537F0758F00E475B7A575B733
:102A1300F1758F0190F916E538F0758F00E475B7FD
:102A2300A575B7F1758F0190F917E539F0758F002A
:102A3300E475B7A575B7F1758F0190F918E53AF00C
:102A4300758F00E475B7A575B7F1758F0190F91906
:102A5300E53BF0758F00E475B7A575B7F1758F0188
:102A630090F91AE53CF0758F00E475B7A575B7F1D9
:102A7300758F0190F91BE53DF0758F00E475B7A5DF
:102A830075B7F1758F0190F91CE53EF0758F00E481
:102A930075B7A575B7F1758F0190F91DE53FF07511
:102AA3008F00E475B7A575B7F1758F0190F91EE531
:102AB30040F0758F00E475B7A575B7F1758F019078
:102AC300F91FE541F0758F00E475B7A575B7F1758A
:102AD3008F0190F920E552F0758F00E475B7A57565
:102AE300B7F1758F0190F921E553F0758F00E47507
:102AF300B7A575B7F1758F0190F922E554F0758F7D
:102B030000E475B7A575B7F1758F0190F923E55505
:102B1300F0758F00E475B7A575B7F1758F0190F95E
:102B230024E556F0758F00E475B7A575B7F1758F79
:102B33000190F925E557F0758F00E475B7A575B7D2
:102B4300F1758F0190F926E558F0758F00E475B79C
:102B5300A575B7F1758F0190F927E559F0758F00C9
:102B6300E475B7A575B7F1758F0190F928E55AF0AB
:102B7300758F00E475B7A575B7F1758F0190F929C5
:102B8300E55BF0758F00E475B7A575B7F1758F0137
:102B930090F92AE55CF0758F00E475B7A575B7F178
:102BA300758F0190F92BE55DF0758F00E475B7A57E
:102BB30075B7F1758F0190F92CE55EF0758F00E420
:102BC30075B7A575B7F1758F0190F92DE55FF075B0
:102BD3008F00E475B7A575B7F1758F0190F92EE5F0
:102BE30050F0758F00E475B7A575B7F1758F019037
:102BF300F92FE551F0758F00E4D242D2127B00D257
:102C0300AF022366BB4C14D2A4C2A5C2A6C23E75B2
:102C1300B1FF7597A575970680FE000BEB9126F81B
:102C23000223668322202056616C756573207361CD
:102C3300766564202020202020202073756363653F
:102C4300737366756C6C792020202020202020204F
:102C53002020202020202020202020202020202071
:102C63002072657374617274696E672E2E2E202034
:102C73002022BB4C08C2A4D2A5C2A680FE75A8C060
:102C83000BEB918BF80223668322202046415441AB
:102C93004C204552524F5221202020202020706C7E
:102CA3006561736520636F6E746163743A202020DD
:102CB3002020696E666F40766563746F72666F720B
:102CC3006365202020202E646520202020202020E2
:072CD3002020202020202218
:00000001FF
